{"abi":[{"type":"constructor","inputs":[],"stateMutability":"nonpayable"},{"type":"function","name":"CLOCK_MODE","inputs":[],"outputs":[{"name":"","type":"string","internalType":"string"}],"stateMutability":"view"},{"type":"function","name":"DOMAIN_SEPARATOR","inputs":[],"outputs":[{"name":"","type":"bytes32","internalType":"bytes32"}],"stateMutability":"view"},{"type":"function","name":"allowance","inputs":[{"name":"owner","type":"address","internalType":"address"},{"name":"spender","type":"address","internalType":"address"}],"outputs":[{"name":"","type":"uint256","internalType":"uint256"}],"stateMutability":"view"},{"type":"function","name":"approve","inputs":[{"name":"spender","type":"address","internalType":"address"},{"name":"value","type":"uint256","internalType":"uint256"}],"outputs":[{"name":"","type":"bool","internalType":"bool"}],"stateMutability":"nonpayable"},{"type":"function","name":"balanceOf","inputs":[{"name":"account","type":"address","internalType":"address"}],"outputs":[{"name":"","type":"uint256","internalType":"uint256"}],"stateMutability":"view"},{"type":"function","name":"checkpoints","inputs":[{"name":"account","type":"address","internalType":"address"},{"name":"pos","type":"uint32","internalType":"uint32"}],"outputs":[{"name":"","type":"tuple","internalType":"struct Checkpoints.Checkpoint208","components":[{"name":"_key","type":"uint48","internalType":"uint48"},{"name":"_value","type":"uint208","internalType":"uint208"}]}],"stateMutability":"view"},{"type":"function","name":"clock","inputs":[],"outputs":[{"name":"","type":"uint48","internalType":"uint48"}],"stateMutability":"view"},{"type":"function","name":"decimals","inputs":[],"outputs":[{"name":"","type":"uint8","internalType":"uint8"}],"stateMutability":"view"},{"type":"function","name":"delegate","inputs":[{"name":"delegatee","type":"address","internalType":"address"}],"outputs":[],"stateMutability":"nonpayable"},{"type":"function","name":"delegateBySig","inputs":[{"name":"delegatee","type":"address","internalType":"address"},{"name":"nonce","type":"uint256","internalType":"uint256"},{"name":"expiry","type":"uint256","internalType":"uint256"},{"name":"v","type":"uint8","internalType":"uint8"},{"name":"r","type":"bytes32","internalType":"bytes32"},{"name":"s","type":"bytes32","internalType":"bytes32"}],"outputs":[],"stateMutability":"nonpayable"},{"type":"function","name":"delegates","inputs":[{"name":"account","type":"address","internalType":"address"}],"outputs":[{"name":"","type":"address","internalType":"address"}],"stateMutability":"view"},{"type":"function","name":"eip712Domain","inputs":[],"outputs":[{"name":"fields","type":"bytes1","internalType":"bytes1"},{"name":"name","type":"string","internalType":"string"},{"name":"version","type":"string","internalType":"string"},{"name":"chainId","type":"uint256","internalType":"uint256"},{"name":"verifyingContract","type":"address","internalType":"address"},{"name":"salt","type":"bytes32","internalType":"bytes32"},{"name":"extensions","type":"uint256[]","internalType":"uint256[]"}],"stateMutability":"view"},{"type":"function","name":"getPastTotalSupply","inputs":[{"name":"timepoint","type":"uint256","internalType":"uint256"}],"outputs":[{"name":"","type":"uint256","internalType":"uint256"}],"stateMutability":"view"},{"type":"function","name":"getPastVotes","inputs":[{"name":"account","type":"address","internalType":"address"},{"name":"timepoint","type":"uint256","internalType":"uint256"}],"outputs":[{"name":"","type":"uint256","internalType":"uint256"}],"stateMutability":"view"},{"type":"function","name":"getVotes","inputs":[{"name":"account","type":"address","internalType":"address"}],"outputs":[{"name":"","type":"uint256","internalType":"uint256"}],"stateMutability":"view"},{"type":"function","name":"name","inputs":[],"outputs":[{"name":"","type":"string","internalType":"string"}],"stateMutability":"view"},{"type":"function","name":"nonces","inputs":[{"name":"owner","type":"address","internalType":"address"}],"outputs":[{"name":"","type":"uint256","internalType":"uint256"}],"stateMutability":"view"},{"type":"function","name":"numCheckpoints","inputs":[{"name":"account","type":"address","internalType":"address"}],"outputs":[{"name":"","type":"uint32","internalType":"uint32"}],"stateMutability":"view"},{"type":"function","name":"permit","inputs":[{"name":"owner","type":"address","internalType":"address"},{"name":"spender","type":"address","internalType":"address"},{"name":"value","type":"uint256","internalType":"uint256"},{"name":"deadline","type":"uint256","internalType":"uint256"},{"name":"v","type":"uint8","internalType":"uint8"},{"name":"r","type":"bytes32","internalType":"bytes32"},{"name":"s","type":"bytes32","internalType":"bytes32"}],"outputs":[],"stateMutability":"nonpayable"},{"type":"function","name":"symbol","inputs":[],"outputs":[{"name":"","type":"string","internalType":"string"}],"stateMutability":"view"},{"type":"function","name":"totalSupply","inputs":[],"outputs":[{"name":"","type":"uint256","internalType":"uint256"}],"stateMutability":"view"},{"type":"function","name":"transfer","inputs":[{"name":"to","type":"address","internalType":"address"},{"name":"value","type":"uint256","internalType":"uint256"}],"outputs":[{"name":"","type":"bool","internalType":"bool"}],"stateMutability":"nonpayable"},{"type":"function","name":"transferFrom","inputs":[{"name":"from","type":"address","internalType":"address"},{"name":"to","type":"address","internalType":"address"},{"name":"value","type":"uint256","internalType":"uint256"}],"outputs":[{"name":"","type":"bool","internalType":"bool"}],"stateMutability":"nonpayable"},{"type":"event","name":"Approval","inputs":[{"name":"owner","type":"address","indexed":true,"internalType":"address"},{"name":"spender","type":"address","indexed":true,"internalType":"address"},{"name":"value","type":"uint256","indexed":false,"internalType":"uint256"}],"anonymous":false},{"type":"event","name":"DelegateChanged","inputs":[{"name":"delegator","type":"address","indexed":true,"internalType":"address"},{"name":"fromDelegate","type":"address","indexed":true,"internalType":"address"},{"name":"toDelegate","type":"address","indexed":true,"internalType":"address"}],"anonymous":false},{"type":"event","name":"DelegateVotesChanged","inputs":[{"name":"delegate","type":"address","indexed":true,"internalType":"address"},{"name":"previousVotes","type":"uint256","indexed":false,"internalType":"uint256"},{"name":"newVotes","type":"uint256","indexed":false,"internalType":"uint256"}],"anonymous":false},{"type":"event","name":"EIP712DomainChanged","inputs":[],"anonymous":false},{"type":"event","name":"Transfer","inputs":[{"name":"from","type":"address","indexed":true,"internalType":"address"},{"name":"to","type":"address","indexed":true,"internalType":"address"},{"name":"value","type":"uint256","indexed":false,"internalType":"uint256"}],"anonymous":false},{"type":"error","name":"CheckpointUnorderedInsertion","inputs":[]},{"type":"error","name":"ECDSAInvalidSignature","inputs":[]},{"type":"error","name":"ECDSAInvalidSignatureLength","inputs":[{"name":"length","type":"uint256","internalType":"uint256"}]},{"type":"error","name":"ECDSAInvalidSignatureS","inputs":[{"name":"s","type":"bytes32","internalType":"bytes32"}]},{"type":"error","name":"ERC20ExceededSafeSupply","inputs":[{"name":"increasedSupply","type":"uint256","internalType":"uint256"},{"name":"cap","type":"uint256","internalType":"uint256"}]},{"type":"error","name":"ERC20InsufficientAllowance","inputs":[{"name":"spender","type":"address","internalType":"address"},{"name":"allowance","type":"uint256","internalType":"uint256"},{"name":"needed","type":"uint256","internalType":"uint256"}]},{"type":"error","name":"ERC20InsufficientBalance","inputs":[{"name":"sender","type":"address","internalType":"address"},{"name":"balance","type":"uint256","internalType":"uint256"},{"name":"needed","type":"uint256","internalType":"uint256"}]},{"type":"error","name":"ERC20InvalidApprover","inputs":[{"name":"approver","type":"address","internalType":"address"}]},{"type":"error","name":"ERC20InvalidReceiver","inputs":[{"name":"receiver","type":"address","internalType":"address"}]},{"type":"error","name":"ERC20InvalidSender","inputs":[{"name":"sender","type":"address","internalType":"address"}]},{"type":"error","name":"ERC20InvalidSpender","inputs":[{"name":"spender","type":"address","internalType":"address"}]},{"type":"error","name":"ERC2612ExpiredSignature","inputs":[{"name":"deadline","type":"uint256","internalType":"uint256"}]},{"type":"error","name":"ERC2612InvalidSigner","inputs":[{"name":"signer","type":"address","internalType":"address"},{"name":"owner","type":"address","internalType":"address"}]},{"type":"error","name":"ERC5805FutureLookup","inputs":[{"name":"timepoint","type":"uint256","internalType":"uint256"},{"name":"clock","type":"uint48","internalType":"uint48"}]},{"type":"error","name":"ERC6372InconsistentClock","inputs":[]},{"type":"error","name":"InvalidAccountNonce","inputs":[{"name":"account","type":"address","internalType":"address"},{"name":"currentNonce","type":"uint256","internalType":"uint256"}]},{"type":"error","name":"InvalidShortString","inputs":[]},{"type":"error","name":"SafeCastOverflowedUintDowncast","inputs":[{"name":"bits","type":"uint8","internalType":"uint8"},{"name":"value","type":"uint256","internalType":"uint256"}]},{"type":"error","name":"StringTooLong","inputs":[{"name":"str","type":"string","internalType":"string"}]},{"type":"error","name":"VotesExpiredSignature","inputs":[{"name":"expiry","type":"uint256","internalType":"uint256"}]}],"bytecode":{"object":"0x6101606040523480156200001257600080fd5b506040518060400160405280600781526020016626bcaa37b5b2b760c91b81525080604051806040016040528060018152602001603160f81b8152506040518060400160405280600781526020016626bcaa37b5b2b760c91b815250604051806040016040528060038152602001624d544b60e81b81525081600390816200009b919062000297565b506004620000aa828262000297565b50620000bc915083905060056200016b565b61012052620000cd8160066200016b565b61014052815160208084019190912060e052815190820120610100524660a0526200015b60e05161010051604080517f8b73c3c69bb8fe3d512ecc4cf759cc79239f7b179b0ffacaa9a75d522b39400f60208201529081019290925260608201524660808201523060a082015260009060c00160405160208183030381529060405280519060200120905090565b60805250503060c05250620003d9565b60006020835110156200018b576200018383620001a4565b90506200019e565b8162000198848262000297565b5060ff90505b92915050565b600080829050601f81511115620001db578260405163305a27a960e01b8152600401620001d2919062000363565b60405180910390fd5b8051620001e882620003b4565b179392505050565b634e487b7160e01b600052604160045260246000fd5b600181811c908216806200021b57607f821691505b6020821081036200023c57634e487b7160e01b600052602260045260246000fd5b50919050565b601f82111562000292576000816000526020600020601f850160051c810160208610156200026d5750805b601f850160051c820191505b818110156200028e5782815560010162000279565b5050505b505050565b81516001600160401b03811115620002b357620002b3620001f0565b620002cb81620002c4845462000206565b8462000242565b602080601f831160018114620003035760008415620002ea5750858301515b600019600386901b1c1916600185901b1785556200028e565b600085815260208120601f198616915b82811015620003345788860151825594840194600190910190840162000313565b5085821015620003535787850151600019600388901b60f8161c191681555b5050505050600190811b01905550565b60006020808352835180602085015260005b81811015620003935785810183015185820160400152820162000375565b506000604082860101526040601f19601f8301168501019250505092915050565b805160208083015191908110156200023c5760001960209190910360031b1b16919050565b60805160a05160c05160e051610100516101205161014051611dce620004346000396000610cdd01526000610cb001526000610aae01526000610a86015260006109e101526000610a0b01526000610a350152611dce6000f3fe608060405234801561001057600080fd5b506004361061014d5760003560e01c806370a08231116100c35780639ab24eb01161007c5780639ab24eb0146102fc578063a9059cbb1461030f578063c3cda52014610322578063d505accf14610335578063dd62ed3e14610348578063f1127ed81461038157600080fd5b806370a082311461026b5780637ecebe001461029457806384b0196e146102a75780638e539e8c146102c257806391ddadf4146102d557806395d89b41146102f457600080fd5b80633644e515116101155780633644e515146101c75780633a46b1a8146101cf5780634bf5d7e9146101e2578063587cde1e146101ea5780635c19a95c1461022e5780636fcfff451461024357600080fd5b806306fdde0314610152578063095ea7b31461017057806318160ddd1461019357806323b872dd146101a5578063313ce567146101b8575b600080fd5b61015a6103c0565b60405161016791906119cf565b60405180910390f35b61018361017e3660046119fe565b610452565b6040519015158152602001610167565b6002545b604051908152602001610167565b6101836101b3366004611a28565b61046c565b60405160128152602001610167565b610197610490565b6101976101dd3660046119fe565b61049f565b61015a610525565b6102166101f8366004611a64565b6001600160a01b039081166000908152600860205260409020541690565b6040516001600160a01b039091168152602001610167565b61024161023c366004611a64565b61059d565b005b610256610251366004611a64565b6105ac565b60405163ffffffff9091168152602001610167565b610197610279366004611a64565b6001600160a01b031660009081526020819052604090205490565b6101976102a2366004611a64565b6105b7565b6102af6105c2565b6040516101679796959493929190611a7f565b6101976102d0366004611b18565b610608565b6102dd610672565b60405165ffffffffffff9091168152602001610167565b61015a61067c565b61019761030a366004611a64565b61068b565b61018361031d3660046119fe565b6106bb565b610241610330366004611b42565b6106c9565b610241610343366004611b9a565b610786565b610197610356366004611c04565b6001600160a01b03918216600090815260016020908152604080832093909416825291909152205490565b61039461038f366004611c37565b6108c0565b60408051825165ffffffffffff1681526020928301516001600160d01b03169281019290925201610167565b6060600380546103cf90611c77565b80601f01602080910402602001604051908101604052809291908181526020018280546103fb90611c77565b80156104485780601f1061041d57610100808354040283529160200191610448565b820191906000526020600020905b81548152906001019060200180831161042b57829003601f168201915b5050505050905090565b6000336104608185856108e5565b60019150505b92915050565b60003361047a8582856108f7565b610485858585610975565b506001949350505050565b600061049a6109d4565b905090565b6000806104aa610672565b90508065ffffffffffff1683106104ea57604051637669fc0f60e11b81526004810184905265ffffffffffff821660248201526044015b60405180910390fd5b6105146104f684610aff565b6001600160a01b038616600090815260096020526040902090610b36565b6001600160d01b0316949350505050565b606061052f610bec565b65ffffffffffff1661053f610672565b65ffffffffffff1614610565576040516301bfc1c560e61b815260040160405180910390fd5b5060408051808201909152601d81527f6d6f64653d626c6f636b6e756d6265722666726f6d3d64656661756c74000000602082015290565b336105a88183610bf7565b5050565b600061046682610c69565b600061046682610c8b565b6000606080600080600060606105d6610ca9565b6105de610cd6565b60408051600080825260208201909252600f60f81b9b939a50919850469750309650945092509050565b600080610613610672565b90508065ffffffffffff16831061064e57604051637669fc0f60e11b81526004810184905265ffffffffffff821660248201526044016104e1565b61066261065a84610aff565b600a90610b36565b6001600160d01b03169392505050565b600061049a610bec565b6060600480546103cf90611c77565b6001600160a01b03811660009081526009602052604081206106ac90610d03565b6001600160d01b031692915050565b600033610460818585610975565b834211156106ed57604051632341d78760e11b8152600481018590526024016104e1565b604080517fe48329057bfd03d55e49b547132e39cffd9c1820ad7b9d4c5307691425d15adf60208201526001600160a01b0388169181019190915260608101869052608081018590526000906107679061075f9060a00160405160208183030381529060405280519060200120610d3c565b858585610d69565b90506107738187610d97565b61077d8188610bf7565b50505050505050565b834211156107aa5760405163313c898160e11b8152600481018590526024016104e1565b60007f6e71edae12b1b97f4d1f60370fef10105fa2faae0126114a169c64845d6126c98888886107f78c6001600160a01b0316600090815260076020526040902080546001810190915590565b6040805160208101969096526001600160a01b0394851690860152929091166060840152608083015260a082015260c0810186905260e001604051602081830303815290604052805190602001209050600061085282610d3c565b9050600061086282878787610d69565b9050896001600160a01b0316816001600160a01b0316146108a9576040516325c0072360e11b81526001600160a01b0380831660048301528b1660248201526044016104e1565b6108b48a8a8a6108e5565b50505050505050505050565b60408051808201909152600080825260208201526108de8383610dea565b9392505050565b6108f28383836001610e20565b505050565b6001600160a01b03838116600090815260016020908152604080832093861683529290522054600019811461096f578181101561096057604051637dc7a0d960e11b81526001600160a01b038416600482015260248101829052604481018390526064016104e1565b61096f84848484036000610e20565b50505050565b6001600160a01b03831661099f57604051634b637e8f60e11b8152600060048201526024016104e1565b6001600160a01b0382166109c95760405163ec442f0560e01b8152600060048201526024016104e1565b6108f2838383610ef5565b6000306001600160a01b037f000000000000000000000000000000000000000000000000000000000000000016148015610a2d57507f000000000000000000000000000000000000000000000000000000000000000046145b15610a5757507f000000000000000000000000000000000000000000000000000000000000000090565b61049a604080517f8b73c3c69bb8fe3d512ecc4cf759cc79239f7b179b0ffacaa9a75d522b39400f60208201527f0000000000000000000000000000000000000000000000000000000000000000918101919091527f000000000000000000000000000000000000000000000000000000000000000060608201524660808201523060a082015260009060c00160405160208183030381529060405280519060200120905090565b600065ffffffffffff821115610b32576040516306dfcc6560e41b815260306004820152602481018390526044016104e1565b5090565b815460009081816005811115610b95576000610b5184610f00565b610b5b9085611cc7565b60008881526020902090915081015465ffffffffffff9081169087161015610b8557809150610b93565b610b90816001611cda565b92505b505b6000610ba387878585611059565b90508015610bde57610bc887610bba600184611cc7565b600091825260209091200190565b54600160301b90046001600160d01b0316610be1565b60005b979650505050505050565b600061049a43610aff565b6001600160a01b0382811660008181526008602052604080822080548686166001600160a01b0319821681179092559151919094169392849290917f3134e8a2e6d97e929a7e54011ea5485d7d196dd5f0ba4d4ef95803e8e3fc257f9190a46108f28183610c64866110bb565b6110d9565b6001600160a01b03811660009081526009602052604081205461046690611245565b6001600160a01b038116600090815260076020526040812054610466565b606061049a7f00000000000000000000000000000000000000000000000000000000000000006005611276565b606061049a7f00000000000000000000000000000000000000000000000000000000000000006006611276565b80546000908015610d3357610d1d83610bba600184611cc7565b54600160301b90046001600160d01b03166108de565b60009392505050565b6000610466610d496109d4565b8360405161190160f01b8152600281019290925260228201526042902090565b600080600080610d7b88888888611321565b925092509250610d8b82826113f0565b50909695505050505050565b6001600160a01b03821660009081526007602052604090208054600181019091558181146108f2576040516301d4b62360e61b81526001600160a01b0384166004820152602481018290526044016104e1565b60408051808201909152600080825260208201526001600160a01b03831660009081526009602052604090206108de90836114a9565b6001600160a01b038416610e4a5760405163e602df0560e01b8152600060048201526024016104e1565b6001600160a01b038316610e7457604051634a1406b160e11b8152600060048201526024016104e1565b6001600160a01b038085166000908152600160209081526040808320938716835292905220829055801561096f57826001600160a01b0316846001600160a01b03167f8c5be1e5ebec7d5bd14f71427d1e84f3dd0314c0f7b2291e5b200ac8c7c3b92584604051610ee791815260200190565b60405180910390a350505050565b6108f2838383611519565b600060018211610f0e575090565b816001600160801b8210610f275760809190911c9060401b5b680100000000000000008210610f425760409190911c9060201b5b6401000000008210610f595760209190911c9060101b5b620100008210610f6e5760109190911c9060081b5b6101008210610f825760089190911c9060041b5b60108210610f955760049190911c9060021b5b60048210610fa15760011b5b600302600190811c90818581610fb957610fb9611ced565b048201901c90506001818581610fd157610fd1611ced565b048201901c90506001818581610fe957610fe9611ced565b048201901c9050600181858161100157611001611ced565b048201901c9050600181858161101957611019611ced565b048201901c9050600181858161103157611031611ced565b048201901c905061105081858161104a5761104a611ced565b04821190565b90039392505050565b60005b818310156110b35760006110708484611580565b60008781526020902090915065ffffffffffff86169082015465ffffffffffff16111561109f578092506110ad565b6110aa816001611cda565b93505b5061105c565b509392505050565b6001600160a01b038116600090815260208190526040812054610466565b816001600160a01b0316836001600160a01b0316141580156110fb5750600081115b156108f2576001600160a01b038316156111a3576001600160a01b0383166000908152600960205260408120819061113e9061159b611139866115a7565b6115db565b6001600160d01b031691506001600160d01b03169150846001600160a01b03167fdec2bacdd2f05b59de34da9b523dff8be42e5e38e818c82fdb0bae774387a7248383604051611198929190918252602082015260400190565b60405180910390a250505b6001600160a01b038216156108f2576001600160a01b038216600090815260096020526040812081906111dc90611614611139866115a7565b6001600160d01b031691506001600160d01b03169150836001600160a01b03167fdec2bacdd2f05b59de34da9b523dff8be42e5e38e818c82fdb0bae774387a7248383604051611236929190918252602082015260400190565b60405180910390a25050505050565b600063ffffffff821115610b32576040516306dfcc6560e41b815260206004820152602481018390526044016104e1565b606060ff83146112905761128983611620565b9050610466565b81805461129c90611c77565b80601f01602080910402602001604051908101604052809291908181526020018280546112c890611c77565b80156113155780601f106112ea57610100808354040283529160200191611315565b820191906000526020600020905b8154815290600101906020018083116112f857829003601f168201915b50505050509050610466565b600080807f7fffffffffffffffffffffffffffffff5d576e7357a4501ddfe92f46681b20a084111561135c57506000915060039050826113e6565b604080516000808252602082018084528a905260ff891692820192909252606081018790526080810186905260019060a0016020604051602081039080840390855afa1580156113b0573d6000803e3d6000fd5b5050604051601f1901519150506001600160a01b0381166113dc575060009250600191508290506113e6565b9250600091508190505b9450945094915050565b600082600381111561140457611404611d03565b0361140d575050565b600182600381111561142157611421611d03565b0361143f5760405163f645eedf60e01b815260040160405180910390fd5b600282600381111561145357611453611d03565b036114745760405163fce698f760e01b8152600481018290526024016104e1565b600382600381111561148857611488611d03565b036105a8576040516335e2f38360e21b8152600481018290526024016104e1565b6040805180820190915260008082526020820152826000018263ffffffff16815481106114d8576114d8611d19565b60009182526020918290206040805180820190915291015465ffffffffffff81168252600160301b90046001600160d01b0316918101919091529392505050565b61152483838361165f565b6001600160a01b03831661157557600061153d60025490565b90506001600160d01b038082111561157257604051630e58ae9360e11b815260048101839052602481018290526044016104e1565b50505b6108f2838383611789565b600061158f6002848418611d2f565b6108de90848416611cda565b60006108de8284611d51565b60006001600160d01b03821115610b32576040516306dfcc6560e41b815260d06004820152602481018390526044016104e1565b6000806116076115e9610672565b6115ff6115f588610d03565b868863ffffffff16565b8791906117ff565b915091505b935093915050565b60006108de8284611d78565b6060600061162d8361180d565b604080516020808252818301909252919250600091906020820181803683375050509182525060208101929092525090565b6001600160a01b03831661168a57806002600082825461167f9190611cda565b909155506116fc9050565b6001600160a01b038316600090815260208190526040902054818110156116dd5760405163391434e360e21b81526001600160a01b038516600482015260248101829052604481018390526064016104e1565b6001600160a01b03841660009081526020819052604090209082900390555b6001600160a01b03821661171857600280548290039055611737565b6001600160a01b03821660009081526020819052604090208054820190555b816001600160a01b0316836001600160a01b03167fddf252ad1be2c89b69c2b068fc378daa952ba7f163c4a11628f55a4df523b3ef8360405161177c91815260200190565b60405180910390a3505050565b6001600160a01b0383166117ab576117a8600a611614611139846115a7565b50505b6001600160a01b0382166117cd576117ca600a61159b611139846115a7565b50505b6001600160a01b038381166000908152600860205260408082205485841683529120546108f2929182169116836110d9565b600080611607858585611835565b600060ff8216601f81111561046657604051632cd44ac360e21b815260040160405180910390fd5b82546000908190801561192e57600061185387610bba600185611cc7565b805490915065ffffffffffff80821691600160301b90046001600160d01b031690881682111561189657604051632520601d60e01b815260040160405180910390fd5b8765ffffffffffff168265ffffffffffff16036118cf57825465ffffffffffff16600160301b6001600160d01b03891602178355611920565b6040805180820190915265ffffffffffff808a1682526001600160d01b03808a1660208085019182528d54600181018f5560008f81529190912094519151909216600160301b029216919091179101555b945085935061160c92505050565b50506040805180820190915265ffffffffffff80851682526001600160d01b0380851660208085019182528854600181018a5560008a815291822095519251909316600160301b02919093161792019190915590508161160c565b6000815180845260005b818110156119af57602081850181015186830182015201611993565b506000602082860101526020601f19601f83011685010191505092915050565b6020815260006108de6020830184611989565b80356001600160a01b03811681146119f957600080fd5b919050565b60008060408385031215611a1157600080fd5b611a1a836119e2565b946020939093013593505050565b600080600060608486031215611a3d57600080fd5b611a46846119e2565b9250611a54602085016119e2565b9150604084013590509250925092565b600060208284031215611a7657600080fd5b6108de826119e2565b60ff60f81b881681526000602060e06020840152611aa060e084018a611989565b8381036040850152611ab2818a611989565b606085018990526001600160a01b038816608086015260a0850187905284810360c08601528551808252602080880193509091019060005b81811015611b0657835183529284019291840191600101611aea565b50909c9b505050505050505050505050565b600060208284031215611b2a57600080fd5b5035919050565b803560ff811681146119f957600080fd5b60008060008060008060c08789031215611b5b57600080fd5b611b64876119e2565b95506020870135945060408701359350611b8060608801611b31565b92506080870135915060a087013590509295509295509295565b600080600080600080600060e0888a031215611bb557600080fd5b611bbe886119e2565b9650611bcc602089016119e2565b95506040880135945060608801359350611be860808901611b31565b925060a0880135915060c0880135905092959891949750929550565b60008060408385031215611c1757600080fd5b611c20836119e2565b9150611c2e602084016119e2565b90509250929050565b60008060408385031215611c4a57600080fd5b611c53836119e2565b9150602083013563ffffffff81168114611c6c57600080fd5b809150509250929050565b600181811c90821680611c8b57607f821691505b602082108103611cab57634e487b7160e01b600052602260045260246000fd5b50919050565b634e487b7160e01b600052601160045260246000fd5b8181038181111561046657610466611cb1565b8082018082111561046657610466611cb1565b634e487b7160e01b600052601260045260246000fd5b634e487b7160e01b600052602160045260246000fd5b634e487b7160e01b600052603260045260246000fd5b600082611d4c57634e487b7160e01b600052601260045260246000fd5b500490565b6001600160d01b03828116828216039080821115611d7157611d71611cb1565b5092915050565b6001600160d01b03818116838216019080821115611d7157611d71611cb156fea26469706673582212206408b44486d1806ad9418897fd0f2ffe69032e820e03e9fb464297e17c7379aa64736f6c63430008180033","linkReferences":{}},"methodIdentifiers":{"CLOCK_MODE()":"4bf5d7e9","DOMAIN_SEPARATOR()":"3644e515","allowance(address,address)":"dd62ed3e","approve(address,uint256)":"095ea7b3","balanceOf(address)":"70a08231","checkpoints(address,uint32)":"f1127ed8","clock()":"91ddadf4","decimals()":"313ce567","delegate(address)":"5c19a95c","delegateBySig(address,uint256,uint256,uint8,bytes32,bytes32)":"c3cda520","delegates(address)":"587cde1e","eip712Domain()":"84b0196e","getPastTotalSupply(uint256)":"8e539e8c","getPastVotes(address,uint256)":"3a46b1a8","getVotes(address)":"9ab24eb0","name()":"06fdde03","nonces(address)":"7ecebe00","numCheckpoints(address)":"6fcfff45","permit(address,address,uint256,uint256,uint8,bytes32,bytes32)":"d505accf","symbol()":"95d89b41","totalSupply()":"18160ddd","transfer(address,uint256)":"a9059cbb","transferFrom(address,address,uint256)":"23b872dd"},"id":26}