{
  "abi": [
    {
      "type": "constructor",
      "inputs": [
        {
          "name": "_token",
          "type": "address",
          "internalType": "contract IVotes"
        },
        {
          "name": "_timelock",
          "type": "address",
          "internalType": "contract TimelockController"
        }
      ],
      "stateMutability": "nonpayable"
    },
    {
      "type": "receive",
      "stateMutability": "payable"
    },
    {
      "type": "function",
      "name": "BALLOT_TYPEHASH",
      "inputs": [],
      "outputs": [
        {
          "name": "",
          "type": "bytes32",
          "internalType": "bytes32"
        }
      ],
      "stateMutability": "view"
    },
    {
      "type": "function",
      "name": "CLOCK_MODE",
      "inputs": [],
      "outputs": [
        {
          "name": "",
          "type": "string",
          "internalType": "string"
        }
      ],
      "stateMutability": "view"
    },
    {
      "type": "function",
      "name": "COUNTING_MODE",
      "inputs": [],
      "outputs": [
        {
          "name": "",
          "type": "string",
          "internalType": "string"
        }
      ],
      "stateMutability": "pure"
    },
    {
      "type": "function",
      "name": "EXTENDED_BALLOT_TYPEHASH",
      "inputs": [],
      "outputs": [
        {
          "name": "",
          "type": "bytes32",
          "internalType": "bytes32"
        }
      ],
      "stateMutability": "view"
    },
    {
      "type": "function",
      "name": "cancel",
      "inputs": [
        {
          "name": "targets",
          "type": "address[]",
          "internalType": "address[]"
        },
        {
          "name": "values",
          "type": "uint256[]",
          "internalType": "uint256[]"
        },
        {
          "name": "calldatas",
          "type": "bytes[]",
          "internalType": "bytes[]"
        },
        {
          "name": "descriptionHash",
          "type": "bytes32",
          "internalType": "bytes32"
        }
      ],
      "outputs": [
        {
          "name": "",
          "type": "uint256",
          "internalType": "uint256"
        }
      ],
      "stateMutability": "nonpayable"
    },
    {
      "type": "function",
      "name": "castVote",
      "inputs": [
        {
          "name": "proposalId",
          "type": "uint256",
          "internalType": "uint256"
        },
        {
          "name": "support",
          "type": "uint8",
          "internalType": "uint8"
        }
      ],
      "outputs": [
        {
          "name": "",
          "type": "uint256",
          "internalType": "uint256"
        }
      ],
      "stateMutability": "nonpayable"
    },
    {
      "type": "function",
      "name": "castVoteBySig",
      "inputs": [
        {
          "name": "proposalId",
          "type": "uint256",
          "internalType": "uint256"
        },
        {
          "name": "support",
          "type": "uint8",
          "internalType": "uint8"
        },
        {
          "name": "voter",
          "type": "address",
          "internalType": "address"
        },
        {
          "name": "signature",
          "type": "bytes",
          "internalType": "bytes"
        }
      ],
      "outputs": [
        {
          "name": "",
          "type": "uint256",
          "internalType": "uint256"
        }
      ],
      "stateMutability": "nonpayable"
    },
    {
      "type": "function",
      "name": "castVoteWithReason",
      "inputs": [
        {
          "name": "proposalId",
          "type": "uint256",
          "internalType": "uint256"
        },
        {
          "name": "support",
          "type": "uint8",
          "internalType": "uint8"
        },
        {
          "name": "reason",
          "type": "string",
          "internalType": "string"
        }
      ],
      "outputs": [
        {
          "name": "",
          "type": "uint256",
          "internalType": "uint256"
        }
      ],
      "stateMutability": "nonpayable"
    },
    {
      "type": "function",
      "name": "castVoteWithReasonAndParams",
      "inputs": [
        {
          "name": "proposalId",
          "type": "uint256",
          "internalType": "uint256"
        },
        {
          "name": "support",
          "type": "uint8",
          "internalType": "uint8"
        },
        {
          "name": "reason",
          "type": "string",
          "internalType": "string"
        },
        {
          "name": "params",
          "type": "bytes",
          "internalType": "bytes"
        }
      ],
      "outputs": [
        {
          "name": "",
          "type": "uint256",
          "internalType": "uint256"
        }
      ],
      "stateMutability": "nonpayable"
    },
    {
      "type": "function",
      "name": "castVoteWithReasonAndParamsBySig",
      "inputs": [
        {
          "name": "proposalId",
          "type": "uint256",
          "internalType": "uint256"
        },
        {
          "name": "support",
          "type": "uint8",
          "internalType": "uint8"
        },
        {
          "name": "voter",
          "type": "address",
          "internalType": "address"
        },
        {
          "name": "reason",
          "type": "string",
          "internalType": "string"
        },
        {
          "name": "params",
          "type": "bytes",
          "internalType": "bytes"
        },
        {
          "name": "signature",
          "type": "bytes",
          "internalType": "bytes"
        }
      ],
      "outputs": [
        {
          "name": "",
          "type": "uint256",
          "internalType": "uint256"
        }
      ],
      "stateMutability": "nonpayable"
    },
    {
      "type": "function",
      "name": "clock",
      "inputs": [],
      "outputs": [
        {
          "name": "",
          "type": "uint48",
          "internalType": "uint48"
        }
      ],
      "stateMutability": "view"
    },
    {
      "type": "function",
      "name": "eip712Domain",
      "inputs": [],
      "outputs": [
        {
          "name": "fields",
          "type": "bytes1",
          "internalType": "bytes1"
        },
        {
          "name": "name",
          "type": "string",
          "internalType": "string"
        },
        {
          "name": "version",
          "type": "string",
          "internalType": "string"
        },
        {
          "name": "chainId",
          "type": "uint256",
          "internalType": "uint256"
        },
        {
          "name": "verifyingContract",
          "type": "address",
          "internalType": "address"
        },
        {
          "name": "salt",
          "type": "bytes32",
          "internalType": "bytes32"
        },
        {
          "name": "extensions",
          "type": "uint256[]",
          "internalType": "uint256[]"
        }
      ],
      "stateMutability": "view"
    },
    {
      "type": "function",
      "name": "execute",
      "inputs": [
        {
          "name": "targets",
          "type": "address[]",
          "internalType": "address[]"
        },
        {
          "name": "values",
          "type": "uint256[]",
          "internalType": "uint256[]"
        },
        {
          "name": "calldatas",
          "type": "bytes[]",
          "internalType": "bytes[]"
        },
        {
          "name": "descriptionHash",
          "type": "bytes32",
          "internalType": "bytes32"
        }
      ],
      "outputs": [
        {
          "name": "",
          "type": "uint256",
          "internalType": "uint256"
        }
      ],
      "stateMutability": "payable"
    },
    {
      "type": "function",
      "name": "getVotes",
      "inputs": [
        {
          "name": "account",
          "type": "address",
          "internalType": "address"
        },
        {
          "name": "timepoint",
          "type": "uint256",
          "internalType": "uint256"
        }
      ],
      "outputs": [
        {
          "name": "",
          "type": "uint256",
          "internalType": "uint256"
        }
      ],
      "stateMutability": "view"
    },
    {
      "type": "function",
      "name": "getVotesWithParams",
      "inputs": [
        {
          "name": "account",
          "type": "address",
          "internalType": "address"
        },
        {
          "name": "timepoint",
          "type": "uint256",
          "internalType": "uint256"
        },
        {
          "name": "params",
          "type": "bytes",
          "internalType": "bytes"
        }
      ],
      "outputs": [
        {
          "name": "",
          "type": "uint256",
          "internalType": "uint256"
        }
      ],
      "stateMutability": "view"
    },
    {
      "type": "function",
      "name": "hasVoted",
      "inputs": [
        {
          "name": "proposalId",
          "type": "uint256",
          "internalType": "uint256"
        },
        {
          "name": "account",
          "type": "address",
          "internalType": "address"
        }
      ],
      "outputs": [
        {
          "name": "",
          "type": "bool",
          "internalType": "bool"
        }
      ],
      "stateMutability": "view"
    },
    {
      "type": "function",
      "name": "hashProposal",
      "inputs": [
        {
          "name": "targets",
          "type": "address[]",
          "internalType": "address[]"
        },
        {
          "name": "values",
          "type": "uint256[]",
          "internalType": "uint256[]"
        },
        {
          "name": "calldatas",
          "type": "bytes[]",
          "internalType": "bytes[]"
        },
        {
          "name": "descriptionHash",
          "type": "bytes32",
          "internalType": "bytes32"
        }
      ],
      "outputs": [
        {
          "name": "",
          "type": "uint256",
          "internalType": "uint256"
        }
      ],
      "stateMutability": "pure"
    },
    {
      "type": "function",
      "name": "name",
      "inputs": [],
      "outputs": [
        {
          "name": "",
          "type": "string",
          "internalType": "string"
        }
      ],
      "stateMutability": "view"
    },
    {
      "type": "function",
      "name": "nonces",
      "inputs": [
        {
          "name": "owner",
          "type": "address",
          "internalType": "address"
        }
      ],
      "outputs": [
        {
          "name": "",
          "type": "uint256",
          "internalType": "uint256"
        }
      ],
      "stateMutability": "view"
    },
    {
      "type": "function",
      "name": "onERC1155BatchReceived",
      "inputs": [
        {
          "name": "",
          "type": "address",
          "internalType": "address"
        },
        {
          "name": "",
          "type": "address",
          "internalType": "address"
        },
        {
          "name": "",
          "type": "uint256[]",
          "internalType": "uint256[]"
        },
        {
          "name": "",
          "type": "uint256[]",
          "internalType": "uint256[]"
        },
        {
          "name": "",
          "type": "bytes",
          "internalType": "bytes"
        }
      ],
      "outputs": [
        {
          "name": "",
          "type": "bytes4",
          "internalType": "bytes4"
        }
      ],
      "stateMutability": "nonpayable"
    },
    {
      "type": "function",
      "name": "onERC1155Received",
      "inputs": [
        {
          "name": "",
          "type": "address",
          "internalType": "address"
        },
        {
          "name": "",
          "type": "address",
          "internalType": "address"
        },
        {
          "name": "",
          "type": "uint256",
          "internalType": "uint256"
        },
        {
          "name": "",
          "type": "uint256",
          "internalType": "uint256"
        },
        {
          "name": "",
          "type": "bytes",
          "internalType": "bytes"
        }
      ],
      "outputs": [
        {
          "name": "",
          "type": "bytes4",
          "internalType": "bytes4"
        }
      ],
      "stateMutability": "nonpayable"
    },
    {
      "type": "function",
      "name": "onERC721Received",
      "inputs": [
        {
          "name": "",
          "type": "address",
          "internalType": "address"
        },
        {
          "name": "",
          "type": "address",
          "internalType": "address"
        },
        {
          "name": "",
          "type": "uint256",
          "internalType": "uint256"
        },
        {
          "name": "",
          "type": "bytes",
          "internalType": "bytes"
        }
      ],
      "outputs": [
        {
          "name": "",
          "type": "bytes4",
          "internalType": "bytes4"
        }
      ],
      "stateMutability": "nonpayable"
    },
    {
      "type": "function",
      "name": "proposalDeadline",
      "inputs": [
        {
          "name": "proposalId",
          "type": "uint256",
          "internalType": "uint256"
        }
      ],
      "outputs": [
        {
          "name": "",
          "type": "uint256",
          "internalType": "uint256"
        }
      ],
      "stateMutability": "view"
    },
    {
      "type": "function",
      "name": "proposalEta",
      "inputs": [
        {
          "name": "proposalId",
          "type": "uint256",
          "internalType": "uint256"
        }
      ],
      "outputs": [
        {
          "name": "",
          "type": "uint256",
          "internalType": "uint256"
        }
      ],
      "stateMutability": "view"
    },
    {
      "type": "function",
      "name": "proposalNeedsQueuing",
      "inputs": [
        {
          "name": "proposalId",
          "type": "uint256",
          "internalType": "uint256"
        }
      ],
      "outputs": [
        {
          "name": "",
          "type": "bool",
          "internalType": "bool"
        }
      ],
      "stateMutability": "view"
    },
    {
      "type": "function",
      "name": "proposalProposer",
      "inputs": [
        {
          "name": "proposalId",
          "type": "uint256",
          "internalType": "uint256"
        }
      ],
      "outputs": [
        {
          "name": "",
          "type": "address",
          "internalType": "address"
        }
      ],
      "stateMutability": "view"
    },
    {
      "type": "function",
      "name": "proposalSnapshot",
      "inputs": [
        {
          "name": "proposalId",
          "type": "uint256",
          "internalType": "uint256"
        }
      ],
      "outputs": [
        {
          "name": "",
          "type": "uint256",
          "internalType": "uint256"
        }
      ],
      "stateMutability": "view"
    },
    {
      "type": "function",
      "name": "proposalThreshold",
      "inputs": [],
      "outputs": [
        {
          "name": "",
          "type": "uint256",
          "internalType": "uint256"
        }
      ],
      "stateMutability": "view"
    },
    {
      "type": "function",
      "name": "proposalVotes",
      "inputs": [
        {
          "name": "proposalId",
          "type": "uint256",
          "internalType": "uint256"
        }
      ],
      "outputs": [
        {
          "name": "againstVotes",
          "type": "uint256",
          "internalType": "uint256"
        },
        {
          "name": "forVotes",
          "type": "uint256",
          "internalType": "uint256"
        },
        {
          "name": "abstainVotes",
          "type": "uint256",
          "internalType": "uint256"
        }
      ],
      "stateMutability": "view"
    },
    {
      "type": "function",
      "name": "propose",
      "inputs": [
        {
          "name": "targets",
          "type": "address[]",
          "internalType": "address[]"
        },
        {
          "name": "values",
          "type": "uint256[]",
          "internalType": "uint256[]"
        },
        {
          "name": "calldatas",
          "type": "bytes[]",
          "internalType": "bytes[]"
        },
        {
          "name": "description",
          "type": "string",
          "internalType": "string"
        }
      ],
      "outputs": [
        {
          "name": "",
          "type": "uint256",
          "internalType": "uint256"
        }
      ],
      "stateMutability": "nonpayable"
    },
    {
      "type": "function",
      "name": "queue",
      "inputs": [
        {
          "name": "targets",
          "type": "address[]",
          "internalType": "address[]"
        },
        {
          "name": "values",
          "type": "uint256[]",
          "internalType": "uint256[]"
        },
        {
          "name": "calldatas",
          "type": "bytes[]",
          "internalType": "bytes[]"
        },
        {
          "name": "descriptionHash",
          "type": "bytes32",
          "internalType": "bytes32"
        }
      ],
      "outputs": [
        {
          "name": "",
          "type": "uint256",
          "internalType": "uint256"
        }
      ],
      "stateMutability": "nonpayable"
    },
    {
      "type": "function",
      "name": "quorum",
      "inputs": [
        {
          "name": "blockNumber",
          "type": "uint256",
          "internalType": "uint256"
        }
      ],
      "outputs": [
        {
          "name": "",
          "type": "uint256",
          "internalType": "uint256"
        }
      ],
      "stateMutability": "view"
    },
    {
      "type": "function",
      "name": "quorumDenominator",
      "inputs": [],
      "outputs": [
        {
          "name": "",
          "type": "uint256",
          "internalType": "uint256"
        }
      ],
      "stateMutability": "view"
    },
    {
      "type": "function",
      "name": "quorumNumerator",
      "inputs": [
        {
          "name": "timepoint",
          "type": "uint256",
          "internalType": "uint256"
        }
      ],
      "outputs": [
        {
          "name": "",
          "type": "uint256",
          "internalType": "uint256"
        }
      ],
      "stateMutability": "view"
    },
    {
      "type": "function",
      "name": "quorumNumerator",
      "inputs": [],
      "outputs": [
        {
          "name": "",
          "type": "uint256",
          "internalType": "uint256"
        }
      ],
      "stateMutability": "view"
    },
    {
      "type": "function",
      "name": "relay",
      "inputs": [
        {
          "name": "target",
          "type": "address",
          "internalType": "address"
        },
        {
          "name": "value",
          "type": "uint256",
          "internalType": "uint256"
        },
        {
          "name": "data",
          "type": "bytes",
          "internalType": "bytes"
        }
      ],
      "outputs": [],
      "stateMutability": "payable"
    },
    {
      "type": "function",
      "name": "setProposalThreshold",
      "inputs": [
        {
          "name": "newProposalThreshold",
          "type": "uint256",
          "internalType": "uint256"
        }
      ],
      "outputs": [],
      "stateMutability": "nonpayable"
    },
    {
      "type": "function",
      "name": "setVotingDelay",
      "inputs": [
        {
          "name": "newVotingDelay",
          "type": "uint48",
          "internalType": "uint48"
        }
      ],
      "outputs": [],
      "stateMutability": "nonpayable"
    },
    {
      "type": "function",
      "name": "setVotingPeriod",
      "inputs": [
        {
          "name": "newVotingPeriod",
          "type": "uint32",
          "internalType": "uint32"
        }
      ],
      "outputs": [],
      "stateMutability": "nonpayable"
    },
    {
      "type": "function",
      "name": "state",
      "inputs": [
        {
          "name": "proposalId",
          "type": "uint256",
          "internalType": "uint256"
        }
      ],
      "outputs": [
        {
          "name": "",
          "type": "uint8",
          "internalType": "enum IGovernor.ProposalState"
        }
      ],
      "stateMutability": "view"
    },
    {
      "type": "function",
      "name": "supportsInterface",
      "inputs": [
        {
          "name": "interfaceId",
          "type": "bytes4",
          "internalType": "bytes4"
        }
      ],
      "outputs": [
        {
          "name": "",
          "type": "bool",
          "internalType": "bool"
        }
      ],
      "stateMutability": "view"
    },
    {
      "type": "function",
      "name": "timelock",
      "inputs": [],
      "outputs": [
        {
          "name": "",
          "type": "address",
          "internalType": "address"
        }
      ],
      "stateMutability": "view"
    },
    {
      "type": "function",
      "name": "token",
      "inputs": [],
      "outputs": [
        {
          "name": "",
          "type": "address",
          "internalType": "contract IERC5805"
        }
      ],
      "stateMutability": "view"
    },
    {
      "type": "function",
      "name": "updateQuorumNumerator",
      "inputs": [
        {
          "name": "newQuorumNumerator",
          "type": "uint256",
          "internalType": "uint256"
        }
      ],
      "outputs": [],
      "stateMutability": "nonpayable"
    },
    {
      "type": "function",
      "name": "updateTimelock",
      "inputs": [
        {
          "name": "newTimelock",
          "type": "address",
          "internalType": "contract TimelockController"
        }
      ],
      "outputs": [],
      "stateMutability": "nonpayable"
    },
    {
      "type": "function",
      "name": "version",
      "inputs": [],
      "outputs": [
        {
          "name": "",
          "type": "string",
          "internalType": "string"
        }
      ],
      "stateMutability": "view"
    },
    {
      "type": "function",
      "name": "votingDelay",
      "inputs": [],
      "outputs": [
        {
          "name": "",
          "type": "uint256",
          "internalType": "uint256"
        }
      ],
      "stateMutability": "view"
    },
    {
      "type": "function",
      "name": "votingPeriod",
      "inputs": [],
      "outputs": [
        {
          "name": "",
          "type": "uint256",
          "internalType": "uint256"
        }
      ],
      "stateMutability": "view"
    },
    {
      "type": "event",
      "name": "EIP712DomainChanged",
      "inputs": [],
      "anonymous": false
    },
    {
      "type": "event",
      "name": "ProposalCanceled",
      "inputs": [
        {
          "name": "proposalId",
          "type": "uint256",
          "indexed": false,
          "internalType": "uint256"
        }
      ],
      "anonymous": false
    },
    {
      "type": "event",
      "name": "ProposalCreated",
      "inputs": [
        {
          "name": "proposalId",
          "type": "uint256",
          "indexed": false,
          "internalType": "uint256"
        },
        {
          "name": "proposer",
          "type": "address",
          "indexed": false,
          "internalType": "address"
        },
        {
          "name": "targets",
          "type": "address[]",
          "indexed": false,
          "internalType": "address[]"
        },
        {
          "name": "values",
          "type": "uint256[]",
          "indexed": false,
          "internalType": "uint256[]"
        },
        {
          "name": "signatures",
          "type": "string[]",
          "indexed": false,
          "internalType": "string[]"
        },
        {
          "name": "calldatas",
          "type": "bytes[]",
          "indexed": false,
          "internalType": "bytes[]"
        },
        {
          "name": "voteStart",
          "type": "uint256",
          "indexed": false,
          "internalType": "uint256"
        },
        {
          "name": "voteEnd",
          "type": "uint256",
          "indexed": false,
          "internalType": "uint256"
        },
        {
          "name": "description",
          "type": "string",
          "indexed": false,
          "internalType": "string"
        }
      ],
      "anonymous": false
    },
    {
      "type": "event",
      "name": "ProposalExecuted",
      "inputs": [
        {
          "name": "proposalId",
          "type": "uint256",
          "indexed": false,
          "internalType": "uint256"
        }
      ],
      "anonymous": false
    },
    {
      "type": "event",
      "name": "ProposalQueued",
      "inputs": [
        {
          "name": "proposalId",
          "type": "uint256",
          "indexed": false,
          "internalType": "uint256"
        },
        {
          "name": "etaSeconds",
          "type": "uint256",
          "indexed": false,
          "internalType": "uint256"
        }
      ],
      "anonymous": false
    },
    {
      "type": "event",
      "name": "ProposalThresholdSet",
      "inputs": [
        {
          "name": "oldProposalThreshold",
          "type": "uint256",
          "indexed": false,
          "internalType": "uint256"
        },
        {
          "name": "newProposalThreshold",
          "type": "uint256",
          "indexed": false,
          "internalType": "uint256"
        }
      ],
      "anonymous": false
    },
    {
      "type": "event",
      "name": "QuorumNumeratorUpdated",
      "inputs": [
        {
          "name": "oldQuorumNumerator",
          "type": "uint256",
          "indexed": false,
          "internalType": "uint256"
        },
        {
          "name": "newQuorumNumerator",
          "type": "uint256",
          "indexed": false,
          "internalType": "uint256"
        }
      ],
      "anonymous": false
    },
    {
      "type": "event",
      "name": "TimelockChange",
      "inputs": [
        {
          "name": "oldTimelock",
          "type": "address",
          "indexed": false,
          "internalType": "address"
        },
        {
          "name": "newTimelock",
          "type": "address",
          "indexed": false,
          "internalType": "address"
        }
      ],
      "anonymous": false
    },
    {
      "type": "event",
      "name": "VoteCast",
      "inputs": [
        {
          "name": "voter",
          "type": "address",
          "indexed": true,
          "internalType": "address"
        },
        {
          "name": "proposalId",
          "type": "uint256",
          "indexed": false,
          "internalType": "uint256"
        },
        {
          "name": "support",
          "type": "uint8",
          "indexed": false,
          "internalType": "uint8"
        },
        {
          "name": "weight",
          "type": "uint256",
          "indexed": false,
          "internalType": "uint256"
        },
        {
          "name": "reason",
          "type": "string",
          "indexed": false,
          "internalType": "string"
        }
      ],
      "anonymous": false
    },
    {
      "type": "event",
      "name": "VoteCastWithParams",
      "inputs": [
        {
          "name": "voter",
          "type": "address",
          "indexed": true,
          "internalType": "address"
        },
        {
          "name": "proposalId",
          "type": "uint256",
          "indexed": false,
          "internalType": "uint256"
        },
        {
          "name": "support",
          "type": "uint8",
          "indexed": false,
          "internalType": "uint8"
        },
        {
          "name": "weight",
          "type": "uint256",
          "indexed": false,
          "internalType": "uint256"
        },
        {
          "name": "reason",
          "type": "string",
          "indexed": false,
          "internalType": "string"
        },
        {
          "name": "params",
          "type": "bytes",
          "indexed": false,
          "internalType": "bytes"
        }
      ],
      "anonymous": false
    },
    {
      "type": "event",
      "name": "VotingDelaySet",
      "inputs": [
        {
          "name": "oldVotingDelay",
          "type": "uint256",
          "indexed": false,
          "internalType": "uint256"
        },
        {
          "name": "newVotingDelay",
          "type": "uint256",
          "indexed": false,
          "internalType": "uint256"
        }
      ],
      "anonymous": false
    },
    {
      "type": "event",
      "name": "VotingPeriodSet",
      "inputs": [
        {
          "name": "oldVotingPeriod",
          "type": "uint256",
          "indexed": false,
          "internalType": "uint256"
        },
        {
          "name": "newVotingPeriod",
          "type": "uint256",
          "indexed": false,
          "internalType": "uint256"
        }
      ],
      "anonymous": false
    },
    {
      "type": "error",
      "name": "CheckpointUnorderedInsertion",
      "inputs": []
    },
    {
      "type": "error",
      "name": "FailedCall",
      "inputs": []
    },
    {
      "type": "error",
      "name": "GovernorAlreadyCastVote",
      "inputs": [
        {
          "name": "voter",
          "type": "address",
          "internalType": "address"
        }
      ]
    },
    {
      "type": "error",
      "name": "GovernorAlreadyQueuedProposal",
      "inputs": [
        {
          "name": "proposalId",
          "type": "uint256",
          "internalType": "uint256"
        }
      ]
    },
    {
      "type": "error",
      "name": "GovernorDisabledDeposit",
      "inputs": []
    },
    {
      "type": "error",
      "name": "GovernorInsufficientProposerVotes",
      "inputs": [
        {
          "name": "proposer",
          "type": "address",
          "internalType": "address"
        },
        {
          "name": "votes",
          "type": "uint256",
          "internalType": "uint256"
        },
        {
          "name": "threshold",
          "type": "uint256",
          "internalType": "uint256"
        }
      ]
    },
    {
      "type": "error",
      "name": "GovernorInvalidProposalLength",
      "inputs": [
        {
          "name": "targets",
          "type": "uint256",
          "internalType": "uint256"
        },
        {
          "name": "calldatas",
          "type": "uint256",
          "internalType": "uint256"
        },
        {
          "name": "values",
          "type": "uint256",
          "internalType": "uint256"
        }
      ]
    },
    {
      "type": "error",
      "name": "GovernorInvalidQuorumFraction",
      "inputs": [
        {
          "name": "quorumNumerator",
          "type": "uint256",
          "internalType": "uint256"
        },
        {
          "name": "quorumDenominator",
          "type": "uint256",
          "internalType": "uint256"
        }
      ]
    },
    {
      "type": "error",
      "name": "GovernorInvalidSignature",
      "inputs": [
        {
          "name": "voter",
          "type": "address",
          "internalType": "address"
        }
      ]
    },
    {
      "type": "error",
      "name": "GovernorInvalidVoteParams",
      "inputs": []
    },
    {
      "type": "error",
      "name": "GovernorInvalidVoteType",
      "inputs": []
    },
    {
      "type": "error",
      "name": "GovernorInvalidVotingPeriod",
      "inputs": [
        {
          "name": "votingPeriod",
          "type": "uint256",
          "internalType": "uint256"
        }
      ]
    },
    {
      "type": "error",
      "name": "GovernorNonexistentProposal",
      "inputs": [
        {
          "name": "proposalId",
          "type": "uint256",
          "internalType": "uint256"
        }
      ]
    },
    {
      "type": "error",
      "name": "GovernorNotQueuedProposal",
      "inputs": [
        {
          "name": "proposalId",
          "type": "uint256",
          "internalType": "uint256"
        }
      ]
    },
    {
      "type": "error",
      "name": "GovernorOnlyExecutor",
      "inputs": [
        {
          "name": "account",
          "type": "address",
          "internalType": "address"
        }
      ]
    },
    {
      "type": "error",
      "name": "GovernorOnlyProposer",
      "inputs": [
        {
          "name": "account",
          "type": "address",
          "internalType": "address"
        }
      ]
    },
    {
      "type": "error",
      "name": "GovernorQueueNotImplemented",
      "inputs": []
    },
    {
      "type": "error",
      "name": "GovernorRestrictedProposer",
      "inputs": [
        {
          "name": "proposer",
          "type": "address",
          "internalType": "address"
        }
      ]
    },
    {
      "type": "error",
      "name": "GovernorUnexpectedProposalState",
      "inputs": [
        {
          "name": "proposalId",
          "type": "uint256",
          "internalType": "uint256"
        },
        {
          "name": "current",
          "type": "uint8",
          "internalType": "enum IGovernor.ProposalState"
        },
        {
          "name": "expectedStates",
          "type": "bytes32",
          "internalType": "bytes32"
        }
      ]
    },
    {
      "type": "error",
      "name": "InvalidAccountNonce",
      "inputs": [
        {
          "name": "account",
          "type": "address",
          "internalType": "address"
        },
        {
          "name": "currentNonce",
          "type": "uint256",
          "internalType": "uint256"
        }
      ]
    },
    {
      "type": "error",
      "name": "InvalidShortString",
      "inputs": []
    },
    {
      "type": "error",
      "name": "SafeCastOverflowedUintDowncast",
      "inputs": [
        {
          "name": "bits",
          "type": "uint8",
          "internalType": "uint8"
        },
        {
          "name": "value",
          "type": "uint256",
          "internalType": "uint256"
        }
      ]
    },
    {
      "type": "error",
      "name": "StringTooLong",
      "inputs": [
        {
          "name": "str",
          "type": "string",
          "internalType": "string"
        }
      ]
    }
  ],
  "bytecode": {
    "object": "0x6101806040523480156200001257600080fd5b5060405162004d2e38038062004d2e833981016040819052620000359162000783565b80600483611c2061c4e060006040518060400160405280600a81526020016926bca3b7bb32b93737b960b11b81525080620000756200018c60201b60201c565b62000082826000620001a7565b6101205262000093816001620001a7565b61014052815160208084019190912060e052815190820120610100524660a0526200012160e05161010051604080517f8b73c3c69bb8fe3d512ecc4cf759cc79239f7b179b0ffacaa9a75d522b39400f60208201529081019290925260608201524660808201523060a082015260009060c00160405160208183030381529060405280519060200120905090565b60805250503060c052600362000138828262000869565b5062000146905083620001e0565b620001518262000246565b6200015c81620002ed565b5050506001600160a01b03166101605262000177816200032e565b506200018381620003ce565b505050620009f7565b6040805180820190915260018152603160f81b602082015290565b6000602083511015620001c757620001bf8362000437565b9050620001da565b81620001d4848262000869565b5060ff90505b92915050565b6008546040805165ffffffffffff928316815291831660208301527fc565b045403dc03c2eea82b81a0465edad9e2e7fc4d97e11421c209da93d7a93910160405180910390a16008805465ffffffffffff191665ffffffffffff92909216919091179055565b8063ffffffff16600003620002765760405163f1cfbf0560e01b8152600060048201526024015b60405180910390fd5b6008546040805163ffffffff66010000000000009093048316815291831660208301527f7e3f7f0708a84de9203036abaa450dccc85ad5ff52f78c170f3edb55cf5e8828910160405180910390a16008805463ffffffff90921666010000000000000263ffffffff60301b19909216919091179055565b60075460408051918252602082018390527fccb45da8d5717e6c4544694297c4ba5cf151d455c9bb0ed4fc7a38411bc05461910160405180910390a1600755565b6064808211156200035d5760405163243e544560e01b815260048101839052602481018290526044016200026d565b6000620003696200047a565b90506200038e6200037962000496565b620003848562000518565b600a919062000552565b505060408051828152602081018590527f0553476bf02ef2726e8ce5ced78d63e26e602e4a2257b1f559418e24b4633997910160405180910390a1505050565b600b54604080516001600160a01b03928316815291831660208301527f08f74ea46ef7894f65eabfb5e6e695de773a000b47c529ab559178069b226401910160405180910390a1600b80546001600160a01b0319166001600160a01b0392909216919091179055565b600080829050601f8151111562000465578260405163305a27a960e01b81526004016200026d919062000935565b8051620004728262000986565b179392505050565b600062000488600a6200056f565b6001600160d01b0316905090565b6000620004a36101605190565b6001600160a01b03166391ddadf46040518163ffffffff1660e01b8152600401602060405180830381865afa925050508015620004ff575060408051601f3d908101601f19168201909252620004fc91810190620009ab565b60015b62000513576200050e620005bf565b905090565b919050565b60006001600160d01b038211156200054e576040516306dfcc6560e41b815260d06004820152602481018390526044016200026d565b5090565b60008062000562858585620005cc565b915091505b935093915050565b80546000908015620005b5576200059b836200058d600184620009d5565b600091825260209091200190565b54660100000000000090046001600160d01b0316620005b8565b60005b9392505050565b60006200050e4362000735565b825460009081908015620006d6576000620005ee876200058d600185620009d5565b805490915065ffffffffffff80821691660100000000000090046001600160d01b03169088168211156200063557604051632520601d60e01b815260040160405180910390fd5b8765ffffffffffff168265ffffffffffff16036200067357825465ffffffffffff1666010000000000006001600160d01b03891602178355620006c7565b6040805180820190915265ffffffffffff808a1682526001600160d01b03808a1660208085019182528d54600181018f5560008f815291909120945191519092166601000000000000029216919091179101555b94508593506200056792505050565b50506040805180820190915265ffffffffffff80851682526001600160d01b0380851660208085019182528854600181018a5560008a815291822095519251909316660100000000000002919093161792019190915590508162000567565b600065ffffffffffff8211156200054e576040516306dfcc6560e41b815260306004820152602481018390526044016200026d565b6001600160a01b03811681146200078057600080fd5b50565b600080604083850312156200079757600080fd5b8251620007a4816200076a565b6020840151909250620007b7816200076a565b809150509250929050565b634e487b7160e01b600052604160045260246000fd5b600181811c90821680620007ed57607f821691505b6020821081036200080e57634e487b7160e01b600052602260045260246000fd5b50919050565b601f82111562000864576000816000526020600020601f850160051c810160208610156200083f5750805b601f850160051c820191505b8181101562000860578281556001016200084b565b5050505b505050565b81516001600160401b03811115620008855762000885620007c2565b6200089d81620008968454620007d8565b8462000814565b602080601f831160018114620008d55760008415620008bc5750858301515b600019600386901b1c1916600185901b17855562000860565b600085815260208120601f198616915b828110156200090657888601518255948401946001909101908401620008e5565b5085821015620009255787850151600019600388901b60f8161c191681555b5050505050600190811b01905550565b60006020808352835180602085015260005b81811015620009655785810183015185820160400152820162000947565b506000604082860101526040601f19601f8301168501019250505092915050565b805160208083015191908110156200080e5760001960209190910360031b1b16919050565b600060208284031215620009be57600080fd5b815165ffffffffffff81168114620005b857600080fd5b81810381811115620001da57634e487b7160e01b600052601160045260246000fd5b60805160a05160c05160e051610100516101205161014051610160516142b562000a79600039600081816109de01528181610e480152818161139f01528181612005015261225f01526000611fd001526000611fa3015260006128a20152600061287a015260006127d5015260006127ff0152600061282901526142b56000f3fe6080604052600436106102975760003560e01c80637ecebe001161015a578063c01f9e37116100c1578063e540d01d1161007a578063e540d01d1461092f578063eb9019d41461094f578063ece40cc11461096f578063f23a6e611461098f578063f8ce560a146109af578063fc0c546a146109cf57600080fd5b8063c01f9e3714610844578063c28bc2fa14610864578063c59057e414610877578063d33219b414610897578063dd4e2ba5146108b5578063deaaa7cc146108fb57600080fd5b8063a7713a7011610113578063a7713a7014610782578063a890c91014610797578063a9a95294146107b7578063ab58fb8e146107d7578063b58131b01461080f578063bc197c811461082457600080fd5b80637ecebe00146106a457806384b0196e146106da5780638ff262e31461070257806391ddadf41461072257806397c3d3341461074e5780639a802a6d1461076257600080fd5b806343859632116101fe5780635b8d0e0d116101b75780635b8d0e0d146105e45780635f398a141461060457806360c4247f1461062457806379051887146106445780637b3c71d3146106645780637d5e81e21461068457600080fd5b806343859632146104c6578063452115d6146105105780634bf5d7e914610530578063544ffc9c1461054557806354fd4d501461059a57806356781388146105c457600080fd5b8063160cbed711610250578063160cbed7146103fd5780632656227d1461041d5780632d63f693146104305780632fe3e261146104505780633932abb1146104845780633e4f49e61461049957600080fd5b806301ffc9a7146102d357806302a251a31461030857806306f3f9e61461033457806306fdde0314610354578063143489d014610376578063150b7a02146103c457600080fd5b366102ce57306102a5610a02565b6001600160a01b0316146102cc57604051637485328f60e11b815260040160405180910390fd5b005b600080fd5b3480156102df57600080fd5b506102f36102ee3660046131fd565b610a1b565b60405190151581526020015b60405180910390f35b34801561031457600080fd5b50600854600160301b900463ffffffff165b6040519081526020016102ff565b34801561034057600080fd5b506102cc61034f366004613227565b610a6d565b34801561036057600080fd5b50610369610a81565b6040516102ff9190613290565b34801561038257600080fd5b506103ac610391366004613227565b6000908152600460205260409020546001600160a01b031690565b6040516001600160a01b0390911681526020016102ff565b3480156103d057600080fd5b506103e46103df366004613383565b610b13565b6040516001600160e01b031990911681526020016102ff565b34801561040957600080fd5b50610326610418366004613562565b610b56565b61032661042b366004613562565b610c25565b34801561043c57600080fd5b5061032661044b366004613227565b610d91565b34801561045c57600080fd5b506103267f3e83946653575f9a39005e1545185629e92736b7528ab20ca3816f315424a81181565b34801561049057600080fd5b50610326610db2565b3480156104a557600080fd5b506104b96104b4366004613227565b610dc5565b6040516102ff9190613629565b3480156104d257600080fd5b506102f36104e1366004613637565b60008281526009602090815260408083206001600160a01b038516845260030190915290205460ff1692915050565b34801561051c57600080fd5b5061032661052b366004613562565b610dd0565b34801561053c57600080fd5b50610369610e44565b34801561055157600080fd5b5061057f610560366004613227565b6000908152600960205260409020805460018201546002909201549092565b604080519384526020840192909252908201526060016102ff565b3480156105a657600080fd5b506040805180820190915260018152603160f81b6020820152610369565b3480156105d057600080fd5b506103266105df366004613678565b610f06565b3480156105f057600080fd5b506103266105ff3660046136ec565b610f2f565b34801561061057600080fd5b5061032661061f3660046137a6565b61108e565b34801561063057600080fd5b5061032661063f366004613227565b6110e3565b34801561065057600080fd5b506102cc61065f36600461383d565b611171565b34801561067057600080fd5b5061032661067f36600461385a565b611182565b34801561069057600080fd5b5061032661069f3660046138b3565b6111ca565b3480156106b057600080fd5b506103266106bf366004613967565b6001600160a01b031660009081526002602052604090205490565b3480156106e657600080fd5b506106ef611283565b6040516102ff97969594939291906139c0565b34801561070e57600080fd5b5061032661071d366004613a30565b6112c9565b34801561072e57600080fd5b5061073761139b565b60405165ffffffffffff90911681526020016102ff565b34801561075a57600080fd5b506064610326565b34801561076e57600080fd5b5061032661077d366004613a81565b611423565b34801561078e57600080fd5b5061032661143a565b3480156107a357600080fd5b506102cc6107b2366004613967565b611454565b3480156107c357600080fd5b506102f36107d2366004613227565b611465565b3480156107e357600080fd5b506103266107f2366004613227565b60009081526004602052604090206001015465ffffffffffff1690565b34801561081b57600080fd5b5061032661146e565b34801561083057600080fd5b506103e461083f366004613ad9565b611479565b34801561085057600080fd5b5061032661085f366004613227565b6114bd565b6102cc610872366004613b6c565b611500565b34801561088357600080fd5b50610326610892366004613562565b611580565b3480156108a357600080fd5b50600b546001600160a01b03166103ac565b3480156108c157600080fd5b506040805180820190915260208082527f737570706f72743d627261766f2671756f72756d3d666f722c6162737461696e90820152610369565b34801561090757600080fd5b506103267ff2aad550cf55f045cb27e9c559f9889fdfb6e6cdaa032301d6ea397784ae51d781565b34801561093b57600080fd5b506102cc61094a366004613baf565b6115ba565b34801561095b57600080fd5b5061032661096a366004613bd5565b6115cb565b34801561097b57600080fd5b506102cc61098a366004613227565b6115ec565b34801561099b57600080fd5b506103e46109aa366004613c01565b6115fd565b3480156109bb57600080fd5b506103266109ca366004613227565b611641565b3480156109db57600080fd5b507f00000000000000000000000000000000000000000000000000000000000000006103ac565b6000610a16600b546001600160a01b031690565b905090565b60006001600160e01b031982166332a2ad4360e11b1480610a4c57506001600160e01b03198216630271189760e51b145b80610a6757506301ffc9a760e01b6001600160e01b03198316145b92915050565b610a7561164c565b610a7e816116c6565b50565b606060038054610a9090613c69565b80601f0160208091040260200160405190810160405280929190818152602001828054610abc90613c69565b8015610b095780601f10610ade57610100808354040283529160200191610b09565b820191906000526020600020905b815481529060010190602001808311610aec57829003601f168201915b5050505050905090565b600030610b1e610a02565b6001600160a01b031614610b4557604051637485328f60e11b815260040160405180910390fd5b50630a85bd0160e11b949350505050565b600080610b6586868686611580565b9050610b7a81610b75600461175c565b61177f565b506000610b8a82888888886117be565b905065ffffffffffff811615610c0257600082815260046020908152604091829020600101805465ffffffffffff191665ffffffffffff85169081179091558251858152918201527f9a2e42fd6722813d69113e7d0079d3d940171428df7373df9c7f7617cfda2892910160405180910390a1610c1b565b604051634844252360e11b815260040160405180910390fd5b5095945050505050565b600080610c3486868686611580565b9050610c5481610c44600561175c565b610c4e600461175c565b1761177f565b506000818152600460205260409020805460ff60f01b1916600160f01b17905530610c7d610a02565b6001600160a01b031614610d075760005b8651811015610d0557306001600160a01b0316878281518110610cb357610cb3613ca3565b60200260200101516001600160a01b031603610cfd57610cfd858281518110610cde57610cde613ca3565b60200260200101518051906020012060056117cd90919063ffffffff16565b600101610c8e565b505b610d14818787878761182f565b30610d1d610a02565b6001600160a01b031614158015610d4957506005546001600160801b03808216600160801b9092041614155b15610d545760006005555b6040518181527f712ae1383f79ac853f8d882153778e0260ef8f03b504e2866e0593e04d2b291f906020015b60405180910390a195945050505050565b600090815260046020526040902054600160a01b900465ffffffffffff1690565b6000610a1660085465ffffffffffff1690565b6000610a6782611843565b600080610ddf86868686611580565b9050610def81610b75600061175c565b506000818152600460205260409020546001600160a01b03163314610e2e5760405163233d98e360e01b81523360048201526024015b60405180910390fd5b610e3a86868686611982565b9695505050505050565b60607f00000000000000000000000000000000000000000000000000000000000000006001600160a01b0316634bf5d7e96040518163ffffffff1660e01b8152600401600060405180830381865afa925050508015610ec557506040513d6000823e601f3d908101601f19168201604052610ec29190810190613cb9565b60015b610f01575060408051808201909152601d81527f6d6f64653d626c6f636b6e756d6265722666726f6d3d64656661756c74000000602082015290565b919050565b600080339050610f2784828560405180602001604052806000815250611999565b949350505050565b6000806110128761100c7f3e83946653575f9a39005e1545185629e92736b7528ab20ca3816f315424a8118c8c8c610f848e6001600160a01b0316600090815260026020526040902080546001810190915590565b8d8d604051610f94929190613d26565b60405180910390208c80519060200120604051602001610ff19796959493929190968752602087019590955260ff9390931660408601526001600160a01b03919091166060850152608084015260a083015260c082015260e00190565b604051602081830303815290604052805190602001206119bc565b856119e9565b90508061103d576040516394ab6c0760e01b81526001600160a01b0388166004820152602401610e25565b61108189888a89898080601f0160208091040260200160405190810160405280939291908181526020018383808284376000920191909152508b9250611a5d915050565b9998505050505050505050565b6000803390506110d887828888888080601f0160208091040260200160405190810160405280939291908181526020018383808284376000920191909152508a9250611a5d915050565b979650505050505050565b600a805460009182906110f7600184613d4c565b8154811061110757611107613ca3565b6000918252602090912001805490915065ffffffffffff811690600160301b90046001600160d01b031685821161114a576001600160d01b031695945050505050565b61115e61115687611b3f565b600a90611b76565b6001600160d01b03169695505050505050565b61117961164c565b610a7e81611c2b565b600080339050610e3a86828787878080601f01602080910402602001604051908101604052809392919081815260200183838082843760009201919091525061199992505050565b6000336111d78184611c91565b6111ff5760405163d9b3955760e01b81526001600160a01b0382166004820152602401610e25565b600061120961146e565b9050801561127657600061123883600161122161139b565b61122b9190613d5f565b65ffffffffffff166115cb565b90508181101561127457604051636121770b60e11b81526001600160a01b03841660048201526024810182905260448101839052606401610e25565b505b6110d88787878786611d7c565b600060608060008060006060611297611f9c565b61129f611fc9565b60408051600080825260208201909252600f60f81b9b939a50919850469750309650945092509050565b6000806113558461100c7ff2aad550cf55f045cb27e9c559f9889fdfb6e6cdaa032301d6ea397784ae51d789898961131e8b6001600160a01b0316600090815260026020526040902080546001810190915590565b60408051602081019690965285019390935260ff90911660608401526001600160a01b0316608083015260a082015260c001610ff1565b905080611380576040516394ab6c0760e01b81526001600160a01b0385166004820152602401610e25565b610e3a86858760405180602001604052806000815250611999565b60007f00000000000000000000000000000000000000000000000000000000000000006001600160a01b03166391ddadf46040518163ffffffff1660e01b8152600401602060405180830381865afa925050508015611417575060408051601f3d908101601f1916820190925261141491810190613d85565b60015b610f0157610a16611ff6565b6000611430848484612001565b90505b9392505050565b6000611446600a612097565b6001600160d01b0316905090565b61145c61164c565b610a7e816120d0565b60006001610a67565b6000610a1660075490565b600030611484610a02565b6001600160a01b0316146114ab57604051637485328f60e11b815260040160405180910390fd5b5063bc197c8160e01b95945050505050565b6000818152600460205260408120546114f290600160d01b810463ffffffff1690600160a01b900465ffffffffffff16613da2565b65ffffffffffff1692915050565b61150861164c565b600080856001600160a01b0316858585604051611526929190613d26565b60006040518083038185875af1925050503d8060008114611563576040519150601f19603f3d011682016040523d82523d6000602084013e611568565b606091505b50915091506115778282612139565b50505050505050565b6000848484846040516020016115999493929190613e55565b60408051601f19818403018152919052805160209091012095945050505050565b6115c261164c565b610a7e81612155565b600061143383836115e760408051602081019091526000815290565b612001565b6115f461164c565b610a7e816121f3565b600030611608610a02565b6001600160a01b03161461162f57604051637485328f60e11b815260040160405180910390fd5b5063f23a6e6160e01b95945050505050565b6000610a6782612234565b33611655610a02565b6001600160a01b03161461167e576040516347096e4760e01b8152336004820152602401610e25565b30611687610a02565b6001600160a01b0316146116c457600080366040516116a7929190613d26565b604051809103902090505b806116bd60056122de565b036116b257505b565b6064808211156116f35760405163243e544560e01b81526004810183905260248101829052604401610e25565b60006116fd61143a565b905061171c61170a61139b565b6117138561234d565b600a9190612381565b505060408051828152602081018590527f0553476bf02ef2726e8ce5ced78d63e26e602e4a2257b1f559418e24b4633997910160405180910390a1505050565b6000816007811115611770576117706135f1565b600160ff919091161b92915050565b60008061178b84610dc5565b90506000836117998361175c565b1603611433578381846040516331b75e4d60e01b8152600401610e2593929190613ea0565b6000610e3a868686868661239c565b81546001600160801b03600160801b8204811691811660018301909116036117f9576117f96041612547565b6001600160801b03808216600090815260018086016020526040909120939093558354919092018216600160801b029116179055565b61183c8585858585612559565b5050505050565b60008061184f836125ef565b90506005816007811115611865576118656135f1565b146118705792915050565b6000838152600c60205260409081902054600b549151632c258a9f60e11b81526004810182905290916001600160a01b03169063584b153e90602401602060405180830381865afa1580156118c9573d6000803e3d6000fd5b505050506040513d601f19601f820116820180604052508101906118ed9190613ec2565b156118fc575060059392505050565b600b54604051632ab0f52960e01b8152600481018390526001600160a01b0390911690632ab0f52990602401602060405180830381865afa158015611945573d6000803e3d6000fd5b505050506040513d601f19601f820116820180604052508101906119699190613ec2565b15611978575060079392505050565b5060029392505050565b600061199085858585612729565b95945050505050565b6000611990858585856119b760408051602081019091526000815290565b611a5d565b6000610a676119c96127c8565b8360405161190160f01b8152600281019290925260228201526042902090565b6000836001600160a01b03163b600003611a4b57600080611a0a85856128f3565b5090925090506000816003811115611a2457611a246135f1565b148015611a425750856001600160a01b0316826001600160a01b0316145b92505050611433565b611a56848484612940565b9050611433565b6000611a6d86610b75600161175c565b506000611a8386611a7d89610d91565b85612001565b90506000611a948888888588612a1b565b90508351600003611aeb57866001600160a01b03167fb8e138887d0aa13bab447e82de9d5c1777041ecd21ca36ba824ff1e6c07ddda489888489604051611ade9493929190613ee4565b60405180910390a26110d8565b866001600160a01b03167fe2babfbac5889a709b63bb7f598b324e08bc5a4fb9ec647fb3cbc9ec07eb87128988848989604051611b2c959493929190613f0c565b60405180910390a2979650505050505050565b600065ffffffffffff821115611b72576040516306dfcc6560e41b81526030600482015260248101839052604401610e25565b5090565b815460009081816005811115611bd5576000611b9184612b1e565b611b9b9085613d4c565b60008881526020902090915081015465ffffffffffff9081169087161015611bc557809150611bd3565b611bd0816001613f46565b92505b505b6000611be387878585612c77565b90508015611c1e57611c0887611bfa600184613d4c565b600091825260209091200190565b54600160301b90046001600160d01b03166110d8565b6000979650505050505050565b6008546040805165ffffffffffff928316815291831660208301527fc565b045403dc03c2eea82b81a0465edad9e2e7fc4d97e11421c209da93d7a93910160405180910390a16008805465ffffffffffff191665ffffffffffff92909216919091179055565b80516000906034811015611ca9576001915050610a67565b82810160131901516001600160a01b031981166b046e0e4dee0dee6cae47a60f60a31b14611cdc57600192505050610a67565b600080611cea602885613d4c565b90505b83811015611d5b57600080611d21888481518110611d0d57611d0d613ca3565b01602001516001600160f81b031916612cd9565b9150915081611d395760019650505050505050610a67565b8060ff166004856001600160a01b0316901b1793505050806001019050611ced565b50856001600160a01b0316816001600160a01b031614935050505092915050565b6000611d918686868680519060200120611580565b905084518651141580611da657508351865114155b80611db057508551155b15611de557855184518651604051630447b05d60e41b8152600481019390935260248301919091526044820152606401610e25565b600081815260046020526040902054600160a01b900465ffffffffffff1615611e305780611e1282610dc5565b6040516331b75e4d60e01b8152610e25929190600090600401613ea0565b6000611e3a610db2565b611e4261139b565b65ffffffffffff16611e549190613f46565b90506000611e6f60085463ffffffff600160301b9091041690565b600084815260046020526040902080546001600160a01b0319166001600160a01b038716178155909150611ea283611b3f565b815465ffffffffffff91909116600160a01b0265ffffffffffff60a01b19909116178155611ecf82612d6b565b815463ffffffff91909116600160d01b0263ffffffff60d01b1990911617815588517f7d84a6263ae0d98d3329bd7b46bb4e8d6f98cd35a7adb45c274c8b7fd5ebd5e090859087908c908c906001600160401b03811115611f3257611f326132b8565b604051908082528060200260200182016040528015611f6557816020015b6060815260200190600190039081611f505790505b508c89611f728a82613f46565b8e604051611f8899989796959493929190613f59565b60405180910390a150505095945050505050565b6060610a167f00000000000000000000000000000000000000000000000000000000000000006000612d9c565b6060610a167f00000000000000000000000000000000000000000000000000000000000000006001612d9c565b6000610a1643611b3f565b60007f0000000000000000000000000000000000000000000000000000000000000000604051630748d63560e31b81526001600160a01b038681166004830152602482018690529190911690633a46b1a890604401602060405180830381865afa158015612073573d6000803e3d6000fd5b505050506040513d601f19601f820116820180604052508101906114309190614030565b805460009080156120c7576120b183611bfa600184613d4c565b54600160301b90046001600160d01b0316611433565b60009392505050565b600b54604080516001600160a01b03928316815291831660208301527f08f74ea46ef7894f65eabfb5e6e695de773a000b47c529ab559178069b226401910160405180910390a1600b80546001600160a01b0319166001600160a01b0392909216919091179055565b60608261214e5761214982612e47565b610a67565b5080610a67565b8063ffffffff1660000361217f5760405163f1cfbf0560e01b815260006004820152602401610e25565b6008546040805163ffffffff600160301b9093048316815291831660208301527f7e3f7f0708a84de9203036abaa450dccc85ad5ff52f78c170f3edb55cf5e8828910160405180910390a16008805463ffffffff909216600160301b0269ffffffff00000000000019909216919091179055565b60075460408051918252602082018390527fccb45da8d5717e6c4544694297c4ba5cf151d455c9bb0ed4fc7a38411bc05461910160405180910390a1600755565b60006064612241836110e3565b604051632394e7a360e21b8152600481018590526001600160a01b037f00000000000000000000000000000000000000000000000000000000000000001690638e539e8c90602401602060405180830381865afa1580156122a6573d6000803e3d6000fd5b505050506040513d601f19601f820116820180604052508101906122ca9190614030565b6122d49190614049565b610a679190614076565b80546000906001600160801b0380821691600160801b9004168103612307576123076031612547565b6001600160801b038181166000908152600185810160205260408220805492905585546fffffffffffffffffffffffffffffffff19169301909116919091179092555090565b60006001600160d01b03821115611b72576040516306dfcc6560e41b815260d0600482015260248101839052604401610e25565b60008061238f858585612e70565b915091505b935093915050565b600080600b60009054906101000a90046001600160a01b03166001600160a01b031663f27a0c926040518163ffffffff1660e01b8152600401602060405180830381865afa1580156123f2573d6000803e3d6000fd5b505050506040513d601f19601f820116820180604052508101906124169190614030565b905060003060601b6bffffffffffffffffffffffff19168418600b5460405163b1c5f42760e01b81529192506001600160a01b03169063b1c5f42790612469908a908a908a906000908890600401614098565b602060405180830381865afa158015612486573d6000803e3d6000fd5b505050506040513d601f19601f820116820180604052508101906124aa9190614030565b6000898152600c602052604080822092909255600b5491516308f2a0bb60e41b81526001600160a01b0390921691638f2a0bb0916124f5918b918b918b919088908a906004016140e6565b600060405180830381600087803b15801561250f57600080fd5b505af1158015612523573d6000803e3d6000fd5b5050505061253b82426125369190613f46565b611b3f565b98975050505050505050565b634e487b71600052806020526024601cfd5b600b546001600160a01b031663e38335e53486868660003060601b6bffffffffffffffffffffffff191688186040518763ffffffff1660e01b81526004016125a5959493929190614098565b6000604051808303818588803b1580156125be57600080fd5b505af11580156125d2573d6000803e3d6000fd5b50505060009687525050600c602052505060408320929092555050565b6000818152600460205260408120805460ff600160f01b8204811691600160f81b900416811561262457506007949350505050565b801561263557506002949350505050565b600061264086610d91565b90508060000361266657604051636ad0607560e01b815260048101879052602401610e25565b600061267061139b565b65ffffffffffff16905080821061268e575060009695505050505050565b6000612699886114bd565b90508181106126b057506001979650505050505050565b6126b988612fc4565b15806126d957506000888152600960205260409020805460019091015411155b156126ec57506003979650505050505050565b60008881526004602052604090206001015465ffffffffffff1660000361271b57506004979650505050505050565b506005979650505050505050565b60008061273886868686612ffb565b6000818152600c60205260409020549091508015610c1b57600b5460405163c4d252f560e01b8152600481018390526001600160a01b039091169063c4d252f590602401600060405180830381600087803b15801561279657600080fd5b505af11580156127aa573d6000803e3d6000fd5b5050506000838152600c602052604081205550509050949350505050565b6000306001600160a01b037f00000000000000000000000000000000000000000000000000000000000000001614801561282157507f000000000000000000000000000000000000000000000000000000000000000046145b1561284b57507f000000000000000000000000000000000000000000000000000000000000000090565b610a16604080517f8b73c3c69bb8fe3d512ecc4cf759cc79239f7b179b0ffacaa9a75d522b39400f60208201527f0000000000000000000000000000000000000000000000000000000000000000918101919091527f000000000000000000000000000000000000000000000000000000000000000060608201524660808201523060a082015260009060c00160405160208183030381529060405280519060200120905090565b6000806000835160410361292d5760208401516040850151606086015160001a61291f888285856130ac565b955095509550505050612939565b50508151600091506002905b9250925092565b6000806000856001600160a01b0316858560405160240161296292919061413e565b60408051601f198184030181529181526020820180516001600160e01b0316630b135d3f60e11b179052516129979190614157565b600060405180830381855afa9150503d80600081146129d2576040519150601f19603f3d011682016040523d82523d6000602084013e6129d7565b606091505b50915091508180156129eb57506020815110155b8015610e3a57508051630b135d3f60e11b90612a109083016020908101908401614030565b149695505050505050565b60008581526009602090815260408083206001600160a01b03881684526003810190925282205460ff1615612a6e576040516371c6af4960e01b81526001600160a01b0387166004820152602401610e25565b6001600160a01b03861660009081526003820160205260409020805460ff1916600117905560ff8516612aba5783816000016000828254612aaf9190613f46565b90915550612b139050565b60001960ff861601612ada5783816001016000828254612aaf9190613f46565b60011960ff861601612afa5783816002016000828254612aaf9190613f46565b6040516303599be160e11b815260040160405180910390fd5b509195945050505050565b600060018211612b2c575090565b816001600160801b8210612b455760809190911c9060401b5b680100000000000000008210612b605760409190911c9060201b5b6401000000008210612b775760209190911c9060101b5b620100008210612b8c5760109190911c9060081b5b6101008210612ba05760089190911c9060041b5b60108210612bb35760049190911c9060021b5b60048210612bbf5760011b5b600302600190811c90818581612bd757612bd7614060565b048201901c90506001818581612bef57612bef614060565b048201901c90506001818581612c0757612c07614060565b048201901c90506001818581612c1f57612c1f614060565b048201901c90506001818581612c3757612c37614060565b048201901c90506001818581612c4f57612c4f614060565b048201901c9050612c6e818581612c6857612c68614060565b04821190565b90039392505050565b60005b81831015612cd1576000612c8e848461317b565b60008781526020902090915065ffffffffffff86169082015465ffffffffffff161115612cbd57809250612ccb565b612cc8816001613f46565b93505b50612c7a565b509392505050565b60008060f883901c602f81118015612cf45750603a8160ff16105b15612d0957600194602f199091019350915050565b8060ff166040108015612d1f575060478160ff16105b15612d34576001946036199091019350915050565b8060ff166060108015612d4a575060678160ff16105b15612d5f576001946056199091019350915050565b50600093849350915050565b600063ffffffff821115611b72576040516306dfcc6560e41b81526020600482015260248101839052604401610e25565b606060ff8314612db657612daf83613196565b9050610a67565b818054612dc290613c69565b80601f0160208091040260200160405190810160405280929190818152602001828054612dee90613c69565b8015612e3b5780601f10612e1057610100808354040283529160200191612e3b565b820191906000526020600020905b815481529060010190602001808311612e1e57829003601f168201915b50505050509050610a67565b805115612e575780518082602001fd5b60405163d6bda27560e01b815260040160405180910390fd5b825460009081908015612f69576000612e8e87611bfa600185613d4c565b805490915065ffffffffffff80821691600160301b90046001600160d01b0316908816821115612ed157604051632520601d60e01b815260040160405180910390fd5b8765ffffffffffff168265ffffffffffff1603612f0a57825465ffffffffffff16600160301b6001600160d01b03891602178355612f5b565b6040805180820190915265ffffffffffff808a1682526001600160d01b03808a1660208085019182528d54600181018f5560008f81529190912094519151909216600160301b029216919091179101555b945085935061239492505050565b50506040805180820190915265ffffffffffff80851682526001600160d01b0380851660208085019182528854600181018a5560008a815291822095519251909316600160301b029190931617920191909155905081612394565b600081815260096020526040812060028101546001820154612fe69190613f46565b612ff26109ca85610d91565b11159392505050565b60008061300a86868686611580565b90506130588161301a600761175c565b613024600661175c565b61302e600261175c565b600161303b600782614173565b613046906002614270565b6130509190613d4c565b18181861177f565b506000818152600460205260409081902080546001600160f81b0316600160f81b179055517f789cf55be980739dad1d0699b93b58e806b51c9d96619bfa8fe0a28abaa7b30c90610d809083815260200190565b600080807f7fffffffffffffffffffffffffffffff5d576e7357a4501ddfe92f46681b20a08411156130e75750600091506003905082613171565b604080516000808252602082018084528a905260ff891692820192909252606081018790526080810186905260019060a0016020604051602081039080840390855afa15801561313b573d6000803e3d6000fd5b5050604051601f1901519150506001600160a01b03811661316757506000925060019150829050613171565b9250600091508190505b9450945094915050565b600061318a6002848418614076565b61143390848416613f46565b606060006131a3836131d5565b604080516020808252818301909252919250600091906020820181803683375050509182525060208101929092525090565b600060ff8216601f811115610a6757604051632cd44ac360e21b815260040160405180910390fd5b60006020828403121561320f57600080fd5b81356001600160e01b03198116811461143357600080fd5b60006020828403121561323957600080fd5b5035919050565b60005b8381101561325b578181015183820152602001613243565b50506000910152565b6000815180845261327c816020860160208601613240565b601f01601f19169290920160200192915050565b6020815260006114336020830184613264565b6001600160a01b0381168114610a7e57600080fd5b634e487b7160e01b600052604160045260246000fd5b604051601f8201601f191681016001600160401b03811182821017156132f6576132f66132b8565b604052919050565b60006001600160401b03821115613317576133176132b8565b50601f01601f191660200190565b6000613338613333846132fe565b6132ce565b905082815283838301111561334c57600080fd5b828260208301376000602084830101529392505050565b600082601f83011261337457600080fd5b61143383833560208501613325565b6000806000806080858703121561339957600080fd5b84356133a4816132a3565b935060208501356133b4816132a3565b92506040850135915060608501356001600160401b038111156133d657600080fd5b6133e287828801613363565b91505092959194509250565b60006001600160401b03821115613407576134076132b8565b5060051b60200190565b600082601f83011261342257600080fd5b81356020613432613333836133ee565b8083825260208201915060208460051b87010193508684111561345457600080fd5b602086015b8481101561347957803561346c816132a3565b8352918301918301613459565b509695505050505050565b600082601f83011261349557600080fd5b813560206134a5613333836133ee565b8083825260208201915060208460051b8701019350868411156134c757600080fd5b602086015b8481101561347957803583529183019183016134cc565b600082601f8301126134f457600080fd5b81356020613504613333836133ee565b82815260059290921b8401810191818101908684111561352357600080fd5b8286015b848110156134795780356001600160401b038111156135465760008081fd5b6135548986838b0101613363565b845250918301918301613527565b6000806000806080858703121561357857600080fd5b84356001600160401b038082111561358f57600080fd5b61359b88838901613411565b955060208701359150808211156135b157600080fd5b6135bd88838901613484565b945060408701359150808211156135d357600080fd5b506135e0878288016134e3565b949793965093946060013593505050565b634e487b7160e01b600052602160045260246000fd5b6008811061362557634e487b7160e01b600052602160045260246000fd5b9052565b60208101610a678284613607565b6000806040838503121561364a57600080fd5b82359150602083013561365c816132a3565b809150509250929050565b803560ff81168114610f0157600080fd5b6000806040838503121561368b57600080fd5b8235915061369b60208401613667565b90509250929050565b60008083601f8401126136b657600080fd5b5081356001600160401b038111156136cd57600080fd5b6020830191508360208285010111156136e557600080fd5b9250929050565b600080600080600080600060c0888a03121561370757600080fd5b8735965061371760208901613667565b95506040880135613727816132a3565b945060608801356001600160401b038082111561374357600080fd5b61374f8b838c016136a4565b909650945060808a013591508082111561376857600080fd5b6137748b838c01613363565b935060a08a013591508082111561378a57600080fd5b506137978a828b01613363565b91505092959891949750929550565b6000806000806000608086880312156137be57600080fd5b853594506137ce60208701613667565b935060408601356001600160401b03808211156137ea57600080fd5b6137f689838a016136a4565b9095509350606088013591508082111561380f57600080fd5b5061381c88828901613363565b9150509295509295909350565b65ffffffffffff81168114610a7e57600080fd5b60006020828403121561384f57600080fd5b813561143381613829565b6000806000806060858703121561387057600080fd5b8435935061388060208601613667565b925060408501356001600160401b0381111561389b57600080fd5b6138a7878288016136a4565b95989497509550505050565b600080600080608085870312156138c957600080fd5b84356001600160401b03808211156138e057600080fd5b6138ec88838901613411565b9550602087013591508082111561390257600080fd5b61390e88838901613484565b9450604087013591508082111561392457600080fd5b613930888389016134e3565b9350606087013591508082111561394657600080fd5b508501601f8101871361395857600080fd5b6133e287823560208401613325565b60006020828403121561397957600080fd5b8135611433816132a3565b60008151808452602080850194506020840160005b838110156139b557815187529582019590820190600101613999565b509495945050505050565b60ff60f81b8816815260e0602082015260006139df60e0830189613264565b82810360408401526139f18189613264565b606084018890526001600160a01b038716608085015260a0840186905283810360c08501529050613a228185613984565b9a9950505050505050505050565b60008060008060808587031215613a4657600080fd5b84359350613a5660208601613667565b92506040850135613a66816132a3565b915060608501356001600160401b038111156133d657600080fd5b600080600060608486031215613a9657600080fd5b8335613aa1816132a3565b92506020840135915060408401356001600160401b03811115613ac357600080fd5b613acf86828701613363565b9150509250925092565b600080600080600060a08688031215613af157600080fd5b8535613afc816132a3565b94506020860135613b0c816132a3565b935060408601356001600160401b0380821115613b2857600080fd5b613b3489838a01613484565b94506060880135915080821115613b4a57600080fd5b613b5689838a01613484565b9350608088013591508082111561380f57600080fd5b60008060008060608587031215613b8257600080fd5b8435613b8d816132a3565b93506020850135925060408501356001600160401b0381111561389b57600080fd5b600060208284031215613bc157600080fd5b813563ffffffff8116811461143357600080fd5b60008060408385031215613be857600080fd5b8235613bf3816132a3565b946020939093013593505050565b600080600080600060a08688031215613c1957600080fd5b8535613c24816132a3565b94506020860135613c34816132a3565b9350604086013592506060860135915060808601356001600160401b03811115613c5d57600080fd5b61381c88828901613363565b600181811c90821680613c7d57607f821691505b602082108103613c9d57634e487b7160e01b600052602260045260246000fd5b50919050565b634e487b7160e01b600052603260045260246000fd5b600060208284031215613ccb57600080fd5b81516001600160401b03811115613ce157600080fd5b8201601f81018413613cf257600080fd5b8051613d00613333826132fe565b818152856020838501011115613d1557600080fd5b611990826020830160208601613240565b8183823760009101908152919050565b634e487b7160e01b600052601160045260246000fd5b81810381811115610a6757610a67613d36565b65ffffffffffff828116828216039080821115613d7e57613d7e613d36565b5092915050565b600060208284031215613d9757600080fd5b815161143381613829565b65ffffffffffff818116838216019080821115613d7e57613d7e613d36565b60008151808452602080850194506020840160005b838110156139b55781516001600160a01b031687529582019590820190600101613dd6565b60008282518085526020808601955060208260051b8401016020860160005b84811015613e4857601f19868403018952613e36838351613264565b98840198925090830190600101613e1a565b5090979650505050505050565b608081526000613e686080830187613dc1565b8281036020840152613e7a8187613984565b90508281036040840152613e8e8186613dfb565b91505082606083015295945050505050565b83815260608101613eb46020830185613607565b826040830152949350505050565b600060208284031215613ed457600080fd5b8151801515811461143357600080fd5b84815260ff84166020820152826040820152608060608201526000610e3a6080830184613264565b85815260ff8516602082015283604082015260a060608201526000613f3460a0830185613264565b828103608084015261253b8185613264565b80820180821115610a6757610a67613d36565b60006101208b8352602060018060a01b038c1681850152816040850152613f828285018c613dc1565b91508382036060850152613f96828b613984565b915083820360808501528189518084528284019150828160051b850101838c0160005b83811015613fe757601f19878403018552613fd5838351613264565b94860194925090850190600101613fb9565b505086810360a0880152613ffb818c613dfb565b9450505050508560c08401528460e08401528281036101008401526140208185613264565b9c9b505050505050505050505050565b60006020828403121561404257600080fd5b5051919050565b8082028115828204841417610a6757610a67613d36565b634e487b7160e01b600052601260045260246000fd5b60008261409357634e487b7160e01b600052601260045260246000fd5b500490565b60a0815260006140ab60a0830188613dc1565b82810360208401526140bd8188613984565b905082810360408401526140d18187613dfb565b60608401959095525050608001529392505050565b60c0815260006140f960c0830189613dc1565b828103602084015261410b8189613984565b9050828103604084015261411f8188613dfb565b60608401969096525050608081019290925260a0909101529392505050565b8281526040602082015260006114306040830184613264565b60008251614169818460208701613240565b9190910192915050565b60ff8181168382160190811115610a6757610a67613d36565b600181815b808511156141c75781600019048211156141ad576141ad613d36565b808516156141ba57918102915b93841c9390800290614191565b509250929050565b6000826141de57506001610a67565b816141eb57506000610a67565b8160018114614201576002811461420b57614227565b6001915050610a67565b60ff84111561421c5761421c613d36565b50506001821b610a67565b5060208310610133831016604e8410600b841016171561424a575081810a610a67565b614254838361418c565b806000190482111561426857614268613d36565b029392505050565b600061143360ff8416836141cf56fea26469706673582212208952314e3a3aebffeae1058c01b66acd7c616fd1578bcf049dd1755025c6532464736f6c63430008180033",
    "linkReferences": {}
  },
  "methodIdentifiers": {
    "BALLOT_TYPEHASH()": "deaaa7cc",
    "CLOCK_MODE()": "4bf5d7e9",
    "COUNTING_MODE()": "dd4e2ba5",
    "EXTENDED_BALLOT_TYPEHASH()": "2fe3e261",
    "cancel(address[],uint256[],bytes[],bytes32)": "452115d6",
    "castVote(uint256,uint8)": "56781388",
    "castVoteBySig(uint256,uint8,address,bytes)": "8ff262e3",
    "castVoteWithReason(uint256,uint8,string)": "7b3c71d3",
    "castVoteWithReasonAndParams(uint256,uint8,string,bytes)": "5f398a14",
    "castVoteWithReasonAndParamsBySig(uint256,uint8,address,string,bytes,bytes)": "5b8d0e0d",
    "clock()": "91ddadf4",
    "eip712Domain()": "84b0196e",
    "execute(address[],uint256[],bytes[],bytes32)": "2656227d",
    "getVotes(address,uint256)": "eb9019d4",
    "getVotesWithParams(address,uint256,bytes)": "9a802a6d",
    "hasVoted(uint256,address)": "43859632",
    "hashProposal(address[],uint256[],bytes[],bytes32)": "c59057e4",
    "name()": "06fdde03",
    "nonces(address)": "7ecebe00",
    "onERC1155BatchReceived(address,address,uint256[],uint256[],bytes)": "bc197c81",
    "onERC1155Received(address,address,uint256,uint256,bytes)": "f23a6e61",
    "onERC721Received(address,address,uint256,bytes)": "150b7a02",
    "proposalDeadline(uint256)": "c01f9e37",
    "proposalEta(uint256)": "ab58fb8e",
    "proposalNeedsQueuing(uint256)": "a9a95294",
    "proposalProposer(uint256)": "143489d0",
    "proposalSnapshot(uint256)": "2d63f693",
    "proposalThreshold()": "b58131b0",
    "proposalVotes(uint256)": "544ffc9c",
    "propose(address[],uint256[],bytes[],string)": "7d5e81e2",
    "queue(address[],uint256[],bytes[],bytes32)": "160cbed7",
    "quorum(uint256)": "f8ce560a",
    "quorumDenominator()": "97c3d334",
    "quorumNumerator()": "a7713a70",
    "quorumNumerator(uint256)": "60c4247f",
    "relay(address,uint256,bytes)": "c28bc2fa",
    "setProposalThreshold(uint256)": "ece40cc1",
    "setVotingDelay(uint48)": "79051887",
    "setVotingPeriod(uint32)": "e540d01d",
    "state(uint256)": "3e4f49e6",
    "supportsInterface(bytes4)": "01ffc9a7",
    "timelock()": "d33219b4",
    "token()": "fc0c546a",
    "updateQuorumNumerator(uint256)": "06f3f9e6",
    "updateTimelock(address)": "a890c910",
    "version()": "54fd4d50",
    "votingDelay()": "3932abb1",
    "votingPeriod()": "02a251a3"
  },
  "id": 40
}